{
  "address": "0x717b0BDEFc89d184367a34032E03a3A267FFdf62",
  "abi": [
    {
      "inputs": [],
      "stateMutability": "nonpayable",
      "type": "constructor"
    },
    {
      "anonymous": false,
      "inputs": [
        {
          "indexed": true,
          "internalType": "address",
          "name": "owner",
          "type": "address"
        },
        {
          "indexed": true,
          "internalType": "address",
          "name": "spender",
          "type": "address"
        },
        {
          "indexed": false,
          "internalType": "uint256",
          "name": "value",
          "type": "uint256"
        }
      ],
      "name": "Approval",
      "type": "event"
    },
    {
      "anonymous": false,
      "inputs": [],
      "name": "EIP712DomainChanged",
      "type": "event"
    },
    {
      "anonymous": false,
      "inputs": [
        {
          "indexed": false,
          "internalType": "uint8",
          "name": "version",
          "type": "uint8"
        }
      ],
      "name": "Initialized",
      "type": "event"
    },
    {
      "anonymous": false,
      "inputs": [
        {
          "indexed": false,
          "internalType": "address",
          "name": "account",
          "type": "address"
        }
      ],
      "name": "Paused",
      "type": "event"
    },
    {
      "anonymous": false,
      "inputs": [
        {
          "indexed": true,
          "internalType": "bytes32",
          "name": "role",
          "type": "bytes32"
        },
        {
          "indexed": true,
          "internalType": "bytes32",
          "name": "previousAdminRole",
          "type": "bytes32"
        },
        {
          "indexed": true,
          "internalType": "bytes32",
          "name": "newAdminRole",
          "type": "bytes32"
        }
      ],
      "name": "RoleAdminChanged",
      "type": "event"
    },
    {
      "anonymous": false,
      "inputs": [
        {
          "indexed": true,
          "internalType": "bytes32",
          "name": "role",
          "type": "bytes32"
        },
        {
          "indexed": true,
          "internalType": "address",
          "name": "account",
          "type": "address"
        },
        {
          "indexed": true,
          "internalType": "address",
          "name": "sender",
          "type": "address"
        }
      ],
      "name": "RoleGranted",
      "type": "event"
    },
    {
      "anonymous": false,
      "inputs": [
        {
          "indexed": true,
          "internalType": "bytes32",
          "name": "role",
          "type": "bytes32"
        },
        {
          "indexed": true,
          "internalType": "address",
          "name": "account",
          "type": "address"
        },
        {
          "indexed": true,
          "internalType": "address",
          "name": "sender",
          "type": "address"
        }
      ],
      "name": "RoleRevoked",
      "type": "event"
    },
    {
      "anonymous": false,
      "inputs": [
        {
          "indexed": true,
          "internalType": "address",
          "name": "from",
          "type": "address"
        },
        {
          "indexed": true,
          "internalType": "address",
          "name": "to",
          "type": "address"
        },
        {
          "indexed": false,
          "internalType": "uint256",
          "name": "value",
          "type": "uint256"
        }
      ],
      "name": "Transfer",
      "type": "event"
    },
    {
      "anonymous": false,
      "inputs": [
        {
          "indexed": false,
          "internalType": "address",
          "name": "account",
          "type": "address"
        }
      ],
      "name": "Unpaused",
      "type": "event"
    },
    {
      "inputs": [],
      "name": "COMPLIANCE_ROLE",
      "outputs": [
        {
          "internalType": "bytes32",
          "name": "",
          "type": "bytes32"
        }
      ],
      "stateMutability": "view",
      "type": "function"
    },
    {
      "inputs": [],
      "name": "DEFAULT_ADMIN_ROLE",
      "outputs": [
        {
          "internalType": "bytes32",
          "name": "",
          "type": "bytes32"
        }
      ],
      "stateMutability": "view",
      "type": "function"
    },
    {
      "inputs": [],
      "name": "DOMAIN_SEPARATOR",
      "outputs": [
        {
          "internalType": "bytes32",
          "name": "",
          "type": "bytes32"
        }
      ],
      "stateMutability": "view",
      "type": "function"
    },
    {
      "inputs": [],
      "name": "MINTER_ROLE",
      "outputs": [
        {
          "internalType": "bytes32",
          "name": "",
          "type": "bytes32"
        }
      ],
      "stateMutability": "view",
      "type": "function"
    },
    {
      "inputs": [],
      "name": "PAUSER_ROLE",
      "outputs": [
        {
          "internalType": "bytes32",
          "name": "",
          "type": "bytes32"
        }
      ],
      "stateMutability": "view",
      "type": "function"
    },
    {
      "inputs": [
        {
          "internalType": "address",
          "name": "owner",
          "type": "address"
        },
        {
          "internalType": "address",
          "name": "spender",
          "type": "address"
        }
      ],
      "name": "allowance",
      "outputs": [
        {
          "internalType": "uint256",
          "name": "",
          "type": "uint256"
        }
      ],
      "stateMutability": "view",
      "type": "function"
    },
    {
      "inputs": [
        {
          "internalType": "address",
          "name": "spender",
          "type": "address"
        },
        {
          "internalType": "uint256",
          "name": "amount",
          "type": "uint256"
        }
      ],
      "name": "approve",
      "outputs": [
        {
          "internalType": "bool",
          "name": "",
          "type": "bool"
        }
      ],
      "stateMutability": "nonpayable",
      "type": "function"
    },
    {
      "inputs": [
        {
          "internalType": "address",
          "name": "account",
          "type": "address"
        }
      ],
      "name": "balanceOf",
      "outputs": [
        {
          "internalType": "uint256",
          "name": "",
          "type": "uint256"
        }
      ],
      "stateMutability": "view",
      "type": "function"
    },
    {
      "inputs": [
        {
          "internalType": "uint256",
          "name": "amount",
          "type": "uint256"
        }
      ],
      "name": "burn",
      "outputs": [],
      "stateMutability": "nonpayable",
      "type": "function"
    },
    {
      "inputs": [
        {
          "internalType": "address",
          "name": "account",
          "type": "address"
        },
        {
          "internalType": "uint256",
          "name": "amount",
          "type": "uint256"
        }
      ],
      "name": "burnFrom",
      "outputs": [],
      "stateMutability": "nonpayable",
      "type": "function"
    },
    {
      "inputs": [],
      "name": "decimals",
      "outputs": [
        {
          "internalType": "uint8",
          "name": "",
          "type": "uint8"
        }
      ],
      "stateMutability": "view",
      "type": "function"
    },
    {
      "inputs": [
        {
          "internalType": "address",
          "name": "spender",
          "type": "address"
        },
        {
          "internalType": "uint256",
          "name": "subtractedValue",
          "type": "uint256"
        }
      ],
      "name": "decreaseAllowance",
      "outputs": [
        {
          "internalType": "bool",
          "name": "",
          "type": "bool"
        }
      ],
      "stateMutability": "nonpayable",
      "type": "function"
    },
    {
      "inputs": [],
      "name": "eip712Domain",
      "outputs": [
        {
          "internalType": "bytes1",
          "name": "fields",
          "type": "bytes1"
        },
        {
          "internalType": "string",
          "name": "name",
          "type": "string"
        },
        {
          "internalType": "string",
          "name": "version",
          "type": "string"
        },
        {
          "internalType": "uint256",
          "name": "chainId",
          "type": "uint256"
        },
        {
          "internalType": "address",
          "name": "verifyingContract",
          "type": "address"
        },
        {
          "internalType": "bytes32",
          "name": "salt",
          "type": "bytes32"
        },
        {
          "internalType": "uint256[]",
          "name": "extensions",
          "type": "uint256[]"
        }
      ],
      "stateMutability": "view",
      "type": "function"
    },
    {
      "inputs": [
        {
          "internalType": "address",
          "name": "token",
          "type": "address"
        },
        {
          "internalType": "uint256",
          "name": "amount",
          "type": "uint256"
        }
      ],
      "name": "flashFee",
      "outputs": [
        {
          "internalType": "uint256",
          "name": "",
          "type": "uint256"
        }
      ],
      "stateMutability": "view",
      "type": "function"
    },
    {
      "inputs": [
        {
          "internalType": "contract IERC3156FlashBorrowerUpgradeable",
          "name": "receiver",
          "type": "address"
        },
        {
          "internalType": "address",
          "name": "token",
          "type": "address"
        },
        {
          "internalType": "uint256",
          "name": "amount",
          "type": "uint256"
        },
        {
          "internalType": "bytes",
          "name": "data",
          "type": "bytes"
        }
      ],
      "name": "flashLoan",
      "outputs": [
        {
          "internalType": "bool",
          "name": "",
          "type": "bool"
        }
      ],
      "stateMutability": "nonpayable",
      "type": "function"
    },
    {
      "inputs": [
        {
          "internalType": "address",
          "name": "account",
          "type": "address"
        }
      ],
      "name": "freeze",
      "outputs": [],
      "stateMutability": "nonpayable",
      "type": "function"
    },
    {
      "inputs": [
        {
          "internalType": "bytes32",
          "name": "role",
          "type": "bytes32"
        }
      ],
      "name": "getRoleAdmin",
      "outputs": [
        {
          "internalType": "bytes32",
          "name": "",
          "type": "bytes32"
        }
      ],
      "stateMutability": "view",
      "type": "function"
    },
    {
      "inputs": [
        {
          "internalType": "bytes32",
          "name": "role",
          "type": "bytes32"
        },
        {
          "internalType": "address",
          "name": "account",
          "type": "address"
        }
      ],
      "name": "grantRole",
      "outputs": [],
      "stateMutability": "nonpayable",
      "type": "function"
    },
    {
      "inputs": [
        {
          "internalType": "bytes32",
          "name": "role",
          "type": "bytes32"
        },
        {
          "internalType": "address",
          "name": "account",
          "type": "address"
        }
      ],
      "name": "hasRole",
      "outputs": [
        {
          "internalType": "bool",
          "name": "",
          "type": "bool"
        }
      ],
      "stateMutability": "view",
      "type": "function"
    },
    {
      "inputs": [
        {
          "internalType": "address",
          "name": "spender",
          "type": "address"
        },
        {
          "internalType": "uint256",
          "name": "addedValue",
          "type": "uint256"
        }
      ],
      "name": "increaseAllowance",
      "outputs": [
        {
          "internalType": "bool",
          "name": "",
          "type": "bool"
        }
      ],
      "stateMutability": "nonpayable",
      "type": "function"
    },
    {
      "inputs": [
        {
          "internalType": "string",
          "name": "name",
          "type": "string"
        },
        {
          "internalType": "string",
          "name": "symbol",
          "type": "string"
        }
      ],
      "name": "initialize",
      "outputs": [],
      "stateMutability": "nonpayable",
      "type": "function"
    },
    {
      "inputs": [
        {
          "internalType": "address",
          "name": "token",
          "type": "address"
        }
      ],
      "name": "maxFlashLoan",
      "outputs": [
        {
          "internalType": "uint256",
          "name": "",
          "type": "uint256"
        }
      ],
      "stateMutability": "view",
      "type": "function"
    },
    {
      "inputs": [
        {
          "internalType": "address",
          "name": "to",
          "type": "address"
        },
        {
          "internalType": "uint256",
          "name": "amount",
          "type": "uint256"
        }
      ],
      "name": "mint",
      "outputs": [],
      "stateMutability": "nonpayable",
      "type": "function"
    },
    {
      "inputs": [],
      "name": "name",
      "outputs": [
        {
          "internalType": "string",
          "name": "",
          "type": "string"
        }
      ],
      "stateMutability": "view",
      "type": "function"
    },
    {
      "inputs": [
        {
          "internalType": "address",
          "name": "owner",
          "type": "address"
        }
      ],
      "name": "nonces",
      "outputs": [
        {
          "internalType": "uint256",
          "name": "",
          "type": "uint256"
        }
      ],
      "stateMutability": "view",
      "type": "function"
    },
    {
      "inputs": [],
      "name": "pause",
      "outputs": [],
      "stateMutability": "nonpayable",
      "type": "function"
    },
    {
      "inputs": [],
      "name": "paused",
      "outputs": [
        {
          "internalType": "bool",
          "name": "",
          "type": "bool"
        }
      ],
      "stateMutability": "view",
      "type": "function"
    },
    {
      "inputs": [
        {
          "internalType": "address",
          "name": "owner",
          "type": "address"
        },
        {
          "internalType": "address",
          "name": "spender",
          "type": "address"
        },
        {
          "internalType": "uint256",
          "name": "value",
          "type": "uint256"
        },
        {
          "internalType": "uint256",
          "name": "deadline",
          "type": "uint256"
        },
        {
          "internalType": "uint8",
          "name": "v",
          "type": "uint8"
        },
        {
          "internalType": "bytes32",
          "name": "r",
          "type": "bytes32"
        },
        {
          "internalType": "bytes32",
          "name": "s",
          "type": "bytes32"
        }
      ],
      "name": "permit",
      "outputs": [],
      "stateMutability": "nonpayable",
      "type": "function"
    },
    {
      "inputs": [
        {
          "internalType": "bytes32",
          "name": "role",
          "type": "bytes32"
        },
        {
          "internalType": "address",
          "name": "account",
          "type": "address"
        }
      ],
      "name": "renounceRole",
      "outputs": [],
      "stateMutability": "nonpayable",
      "type": "function"
    },
    {
      "inputs": [
        {
          "internalType": "bytes32",
          "name": "role",
          "type": "bytes32"
        },
        {
          "internalType": "address",
          "name": "account",
          "type": "address"
        }
      ],
      "name": "revokeRole",
      "outputs": [],
      "stateMutability": "nonpayable",
      "type": "function"
    },
    {
      "inputs": [
        {
          "internalType": "address",
          "name": "account",
          "type": "address"
        },
        {
          "internalType": "uint256",
          "name": "amount",
          "type": "uint256"
        }
      ],
      "name": "seize",
      "outputs": [],
      "stateMutability": "nonpayable",
      "type": "function"
    },
    {
      "inputs": [
        {
          "internalType": "bytes4",
          "name": "interfaceId",
          "type": "bytes4"
        }
      ],
      "name": "supportsInterface",
      "outputs": [
        {
          "internalType": "bool",
          "name": "",
          "type": "bool"
        }
      ],
      "stateMutability": "view",
      "type": "function"
    },
    {
      "inputs": [],
      "name": "symbol",
      "outputs": [
        {
          "internalType": "string",
          "name": "",
          "type": "string"
        }
      ],
      "stateMutability": "view",
      "type": "function"
    },
    {
      "inputs": [],
      "name": "totalSupply",
      "outputs": [
        {
          "internalType": "uint256",
          "name": "",
          "type": "uint256"
        }
      ],
      "stateMutability": "view",
      "type": "function"
    },
    {
      "inputs": [
        {
          "internalType": "address",
          "name": "to",
          "type": "address"
        },
        {
          "internalType": "uint256",
          "name": "amount",
          "type": "uint256"
        }
      ],
      "name": "transfer",
      "outputs": [
        {
          "internalType": "bool",
          "name": "",
          "type": "bool"
        }
      ],
      "stateMutability": "nonpayable",
      "type": "function"
    },
    {
      "inputs": [
        {
          "internalType": "address",
          "name": "from",
          "type": "address"
        },
        {
          "internalType": "address",
          "name": "to",
          "type": "address"
        },
        {
          "internalType": "uint256",
          "name": "amount",
          "type": "uint256"
        }
      ],
      "name": "transferFrom",
      "outputs": [
        {
          "internalType": "bool",
          "name": "",
          "type": "bool"
        }
      ],
      "stateMutability": "nonpayable",
      "type": "function"
    },
    {
      "inputs": [
        {
          "internalType": "address",
          "name": "account",
          "type": "address"
        }
      ],
      "name": "unfreeze",
      "outputs": [],
      "stateMutability": "nonpayable",
      "type": "function"
    },
    {
      "inputs": [],
      "name": "unpause",
      "outputs": [],
      "stateMutability": "nonpayable",
      "type": "function"
    }
  ],
  "transactionHash": "0xf03552f0898bad3a77a267016532e47c82c2a646854bd4fcbaff57855afec0c5",
  "args": [],
  "numDeployments": 1,
  "solcInputHash": "00619a3d7d899cf7949b5faf5dcf2765",
  "bytecode": "0x60806040523480156200001157600080fd5b50620000226200002860201b60201c565b620001d2565b600060019054906101000a900460ff16156200007b576040517f08c379a0000000000000000000000000000000000000000000000000000000008152600401620000729062000175565b60405180910390fd5b60ff801660008054906101000a900460ff1660ff1614620000ec5760ff6000806101000a81548160ff021916908360ff1602179055507f7f26b83ff96e1f2b6a682f133852f6798a09c465da95921460cefb384740249860ff604051620000e39190620001b5565b60405180910390a15b565b600082825260208201905092915050565b7f496e697469616c697a61626c653a20636f6e747261637420697320696e69746960008201527f616c697a696e6700000000000000000000000000000000000000000000000000602082015250565b60006200015d602783620000ee565b91506200016a82620000ff565b604082019050919050565b6000602082019050818103600083015262000190816200014e565b9050919050565b600060ff82169050919050565b620001af8162000197565b82525050565b6000602082019050620001cc6000830184620001a4565b92915050565b614e4480620001e26000396000f3fe608060405234801561001057600080fd5b50600436106102325760003560e01c8063613255ab11610130578063a217fddf116100b8578063d547741f1161007c578063d547741f146106b9578063d9d98ce4146106d5578063dd62ed3e14610705578063e63ab1e914610735578063eb9253c01461075357610232565b8063a217fddf14610601578063a457c2d71461061f578063a9059cbb1461064f578063d505accf1461067f578063d53913931461069b57610232565b80638456cb59116100ff5780638456cb591461056957806384b0196e146105735780638d1fdf2f1461059757806391d14854146105b357806395d89b41146105e357610232565b8063613255ab146104bd57806370a08231146104ed57806379cc67901461051d5780637ecebe001461053957610232565b80633644e515116101be57806342966c681161018257806342966c681461041b57806345c8b1a6146104375780634cd88b76146104535780635c975abb1461046f5780635cffe9de1461048d57610232565b80633644e5151461038b57806336568abe146103a957806339509351146103c55780633f4ba83a146103f557806340c10f19146103ff57610232565b806318160ddd1161020557806318160ddd146102d357806323b872dd146102f1578063248a9ca3146103215780632f2ff15d14610351578063313ce5671461036d57610232565b806301ffc9a714610237578063062d3bd71461026757806306fdde0314610285578063095ea7b3146102a3575b600080fd5b610251600480360381019061024c9190613019565b61076f565b60405161025e9190613061565b60405180910390f35b61026f6107e9565b60405161027c9190613095565b60405180910390f35b61028d61080d565b60405161029a9190613140565b60405180910390f35b6102bd60048036038101906102b891906131f6565b61089f565b6040516102ca9190613061565b60405180910390f35b6102db6108c2565b6040516102e89190613245565b60405180910390f35b61030b60048036038101906103069190613260565b6108cc565b6040516103189190613061565b60405180910390f35b61033b600480360381019061033691906132df565b6108fb565b6040516103489190613095565b60405180910390f35b61036b6004803603810190610366919061330c565b61091b565b005b61037561093c565b6040516103829190613368565b60405180910390f35b610393610945565b6040516103a09190613095565b60405180910390f35b6103c360048036038101906103be919061330c565b610954565b005b6103df60048036038101906103da91906131f6565b6109d7565b6040516103ec9190613061565b60405180910390f35b6103fd610a0e565b005b610419600480360381019061041491906131f6565b610a43565b005b61043560048036038101906104309190613383565b610a7c565b005b610451600480360381019061044c91906133b0565b610a90565b005b61046d60048036038101906104689190613512565b610ac7565b005b610477610c9b565b6040516104849190613061565b60405180910390f35b6104a760048036038101906104a29190613628565b610cb2565b6040516104b49190613061565b60405180910390f35b6104d760048036038101906104d291906133b0565b610e9f565b6040516104e49190613245565b60405180910390f35b610507600480360381019061050291906133b0565b610f16565b6040516105149190613245565b60405180910390f35b610537600480360381019061053291906131f6565b610f5f565b005b610553600480360381019061054e91906133b0565b610f7f565b6040516105609190613245565b60405180910390f35b610571610fd0565b005b61057b611005565b60405161058e97969594939291906137b8565b60405180910390f35b6105b160048036038101906105ac91906133b0565b611108565b005b6105cd60048036038101906105c8919061330c565b61113f565b6040516105da9190613061565b60405180910390f35b6105eb6111aa565b6040516105f89190613140565b60405180910390f35b61060961123c565b6040516106169190613095565b60405180910390f35b610639600480360381019061063491906131f6565b611243565b6040516106469190613061565b60405180910390f35b610669600480360381019061066491906131f6565b6112ba565b6040516106769190613061565b60405180910390f35b61069960048036038101906106949190613868565b6112dd565b005b6106a361141f565b6040516106b09190613095565b60405180910390f35b6106d360048036038101906106ce919061330c565b611443565b005b6106ef60048036038101906106ea91906131f6565b611464565b6040516106fc9190613245565b60405180910390f35b61071f600480360381019061071a919061390a565b6114e6565b60405161072c9190613245565b60405180910390f35b61073d61156d565b60405161074a9190613095565b60405180910390f35b61076d600480360381019061076891906131f6565b611591565b005b60007f7965db0b000000000000000000000000000000000000000000000000000000007bffffffffffffffffffffffffffffffffffffffffffffffffffffffff1916827bffffffffffffffffffffffffffffffffffffffffffffffffffffffff191614806107e257506107e1826115ca565b5b9050919050565b7f442a94f1a1fac79af32856af2a64f63648cfa2ef3b98610a5bb7cbec4cee698581565b60606036805461081c90613979565b80601f016020809104026020016040519081016040528092919081815260200182805461084890613979565b80156108955780601f1061086a57610100808354040283529160200191610895565b820191906000526020600020905b81548152906001019060200180831161087857829003601f168201915b5050505050905090565b6000806108aa611634565b90506108b781858561163c565b600191505092915050565b6000603554905090565b6000806108d7611634565b90506108e4858285611805565b6108ef858585611891565b60019150509392505050565b600060fb6000838152602001908152602001600020600101549050919050565b610924826108fb565b61092d81611b0a565b6109378383611b1e565b505050565b60006006905090565b600061094f611bff565b905090565b61095c611634565b73ffffffffffffffffffffffffffffffffffffffff168173ffffffffffffffffffffffffffffffffffffffff16146109c9576040517f08c379a00000000000000000000000000000000000000000000000000000000081526004016109c090613a1c565b60405180910390fd5b6109d38282611c0e565b5050565b6000806109e2611634565b9050610a038185856109f485896114e6565b6109fe9190613a6b565b61163c565b600191505092915050565b7f65d7a28e3265b37a6474929f336521b332c1681b933f6cb9f3376673440d862a610a3881611b0a565b610a40611cf0565b50565b7f9f2df0fed2c77648de5860a4cc508cd0818c85b8b8a1ab4ceeef8d981c8956a6610a6d81611b0a565b610a778383611d53565b505050565b610a8d610a87611634565b82611eaa565b50565b7f442a94f1a1fac79af32856af2a64f63648cfa2ef3b98610a5bb7cbec4cee6985610aba81611b0a565b610ac382612079565b5050565b60008060019054906101000a900460ff16159050808015610af85750600160008054906101000a900460ff1660ff16105b80610b255750610b07306120d5565b158015610b245750600160008054906101000a900460ff1660ff16145b5b610b64576040517f08c379a0000000000000000000000000000000000000000000000000000000008152600401610b5b90613b11565b60405180910390fd5b60016000806101000a81548160ff021916908360ff1602179055508015610ba1576001600060016101000a81548160ff0219169083151502179055505b610bab83836120f8565b610bb3612155565b610bbb6121a6565b610bc36121ff565b610bcc83612250565b610bd46122e1565b610bdc612332565b610be96000801b33611b1e565b610c137f65d7a28e3265b37a6474929f336521b332c1681b933f6cb9f3376673440d862a33611b1e565b610c3d7f9f2df0fed2c77648de5860a4cc508cd0818c85b8b8a1ab4ceeef8d981c8956a633611b1e565b8015610c965760008060016101000a81548160ff0219169083151502179055507f7f26b83ff96e1f2b6a682f133852f6798a09c465da95921460cefb38474024986001604051610c8d9190613b76565b60405180910390a15b505050565b6000609760009054906101000a900460ff16905090565b6000610cbd85610e9f565b841115610cff576040517f08c379a0000000000000000000000000000000000000000000000000000000008152600401610cf690613c03565b60405180910390fd5b6000610d0b8686611464565b9050610d178786611d53565b7f439148f0bbc682ca079e46d6e2c2f0c1e3b820f1a291b069d8882abf8cf18dd98773ffffffffffffffffffffffffffffffffffffffff166323e30c8b338989868a8a6040518763ffffffff1660e01b8152600401610d7b96959493929190613c61565b6020604051808303816000875af1158015610d9a573d6000803e3d6000fd5b505050506040513d601f19601f82011682018060405250810190610dbe9190613cd2565b14610dfe576040517f08c379a0000000000000000000000000000000000000000000000000000000008152600401610df590613d71565b60405180910390fd5b6000610e08612383565b9050610e2088308489610e1b9190613a6b565b611805565b6000821480610e5b5750600073ffffffffffffffffffffffffffffffffffffffff168173ffffffffffffffffffffffffffffffffffffffff16145b15610e7a57610e75888388610e709190613a6b565b611eaa565b610e90565b610e848887611eaa565b610e8f888284611891565b5b60019250505095945050505050565b60003073ffffffffffffffffffffffffffffffffffffffff168273ffffffffffffffffffffffffffffffffffffffff1614610edb576000610f0f565b610ee36108c2565b7fffffffffffffffffffffffffffffffffffffffffffffffffffffffffffffffff610f0e9190613d91565b5b9050919050565b6000603360008373ffffffffffffffffffffffffffffffffffffffff1673ffffffffffffffffffffffffffffffffffffffff168152602001908152602001600020549050919050565b610f7182610f6b611634565b83611805565b610f7b8282611eaa565b5050565b6000610fc961016160008473ffffffffffffffffffffffffffffffffffffffff1673ffffffffffffffffffffffffffffffffffffffff168152602001908152602001600020612388565b9050919050565b7f65d7a28e3265b37a6474929f336521b332c1681b933f6cb9f3376673440d862a610ffa81611b0a565b611002612396565b50565b6000606080600080600060606000801b61012d5414801561102b57506000801b61012e54145b61106a576040517f08c379a000000000000000000000000000000000000000000000000000000000815260040161106190613e11565b60405180910390fd5b6110726123f9565b61107a61248c565b46306000801b600067ffffffffffffffff81111561109b5761109a6133e7565b5b6040519080825280602002602001820160405280156110c95781602001602082028036833780820191505090505b507f0f00000000000000000000000000000000000000000000000000000000000000959493929190965096509650965096509650965090919293949596565b7f442a94f1a1fac79af32856af2a64f63648cfa2ef3b98610a5bb7cbec4cee698561113281611b0a565b61113b8261251f565b5050565b600060fb600084815260200190815260200160002060000160008373ffffffffffffffffffffffffffffffffffffffff1673ffffffffffffffffffffffffffffffffffffffff16815260200190815260200160002060009054906101000a900460ff16905092915050565b6060603780546111b990613979565b80601f01602080910402602001604051908101604052809291908181526020018280546111e590613979565b80156112325780601f1061120757610100808354040283529160200191611232565b820191906000526020600020905b81548152906001019060200180831161121557829003601f168201915b5050505050905090565b6000801b81565b60008061124e611634565b9050600061125c82866114e6565b9050838110156112a1576040517f08c379a000000000000000000000000000000000000000000000000000000000815260040161129890613ea3565b60405180910390fd5b6112ae828686840361163c565b60019250505092915050565b6000806112c5611634565b90506112d2818585611891565b600191505092915050565b83421115611320576040517f08c379a000000000000000000000000000000000000000000000000000000000815260040161131790613f0f565b60405180910390fd5b60007f6e71edae12b1b97f4d1f60370fef10105fa2faae0126114a169c64845d6126c988888861134f8c61257b565b8960405160200161136596959493929190613f2f565b6040516020818303038152906040528051906020012090506000611388826125da565b90506000611398828787876125f4565b90508973ffffffffffffffffffffffffffffffffffffffff168173ffffffffffffffffffffffffffffffffffffffff1614611408576040517f08c379a00000000000000000000000000000000000000000000000000000000081526004016113ff90613fdc565b60405180910390fd5b6114138a8a8a61163c565b50505050505050505050565b7f9f2df0fed2c77648de5860a4cc508cd0818c85b8b8a1ab4ceeef8d981c8956a681565b61144c826108fb565b61145581611b0a565b61145f8383611c0e565b505050565b60003073ffffffffffffffffffffffffffffffffffffffff168373ffffffffffffffffffffffffffffffffffffffff16146114d4576040517f08c379a00000000000000000000000000000000000000000000000000000000081526004016114cb90614048565b60405180910390fd5b6114de838361261f565b905092915050565b6000603460008473ffffffffffffffffffffffffffffffffffffffff1673ffffffffffffffffffffffffffffffffffffffff16815260200190815260200160002060008373ffffffffffffffffffffffffffffffffffffffff1673ffffffffffffffffffffffffffffffffffffffff16815260200190815260200160002054905092915050565b7f65d7a28e3265b37a6474929f336521b332c1681b933f6cb9f3376673440d862a81565b7f442a94f1a1fac79af32856af2a64f63648cfa2ef3b98610a5bb7cbec4cee69856115bb81611b0a565b6115c58383612627565b505050565b60007f01ffc9a7000000000000000000000000000000000000000000000000000000007bffffffffffffffffffffffffffffffffffffffffffffffffffffffff1916827bffffffffffffffffffffffffffffffffffffffffffffffffffffffff1916149050919050565b600033905090565b600073ffffffffffffffffffffffffffffffffffffffff168373ffffffffffffffffffffffffffffffffffffffff16036116ab576040517f08c379a00000000000000000000000000000000000000000000000000000000081526004016116a2906140da565b60405180910390fd5b600073ffffffffffffffffffffffffffffffffffffffff168273ffffffffffffffffffffffffffffffffffffffff160361171a576040517f08c379a00000000000000000000000000000000000000000000000000000000081526004016117119061416c565b60405180910390fd5b80603460008573ffffffffffffffffffffffffffffffffffffffff1673ffffffffffffffffffffffffffffffffffffffff16815260200190815260200160002060008473ffffffffffffffffffffffffffffffffffffffff1673ffffffffffffffffffffffffffffffffffffffff168152602001908152602001600020819055508173ffffffffffffffffffffffffffffffffffffffff168373ffffffffffffffffffffffffffffffffffffffff167f8c5be1e5ebec7d5bd14f71427d1e84f3dd0314c0f7b2291e5b200ac8c7c3b925836040516117f89190613245565b60405180910390a3505050565b600061181184846114e6565b90507fffffffffffffffffffffffffffffffffffffffffffffffffffffffffffffffff811461188b578181101561187d576040517f08c379a0000000000000000000000000000000000000000000000000000000008152600401611874906141d8565b60405180910390fd5b61188a848484840361163c565b5b50505050565b600073ffffffffffffffffffffffffffffffffffffffff168373ffffffffffffffffffffffffffffffffffffffff1603611900576040517f08c379a00000000000000000000000000000000000000000000000000000000081526004016118f79061426a565b60405180910390fd5b600073ffffffffffffffffffffffffffffffffffffffff168273ffffffffffffffffffffffffffffffffffffffff160361196f576040517f08c379a0000000000000000000000000000000000000000000000000000000008152600401611966906142fc565b60405180910390fd5b61197a838383612635565b6000603360008573ffffffffffffffffffffffffffffffffffffffff1673ffffffffffffffffffffffffffffffffffffffff16815260200190815260200160002054905081811015611a01576040517f08c379a00000000000000000000000000000000000000000000000000000000081526004016119f89061438e565b60405180910390fd5b818103603360008673ffffffffffffffffffffffffffffffffffffffff1673ffffffffffffffffffffffffffffffffffffffff1681526020019081526020016000208190555081603360008573ffffffffffffffffffffffffffffffffffffffff1673ffffffffffffffffffffffffffffffffffffffff168152602001908152602001600020600082825401925050819055508273ffffffffffffffffffffffffffffffffffffffff168473ffffffffffffffffffffffffffffffffffffffff167fddf252ad1be2c89b69c2b068fc378daa952ba7f163c4a11628f55a4df523b3ef84604051611af19190613245565b60405180910390a3611b048484846126dd565b50505050565b611b1b81611b16611634565b6126e2565b50565b611b28828261113f565b611bfb57600160fb600084815260200190815260200160002060000160008373ffffffffffffffffffffffffffffffffffffffff1673ffffffffffffffffffffffffffffffffffffffff16815260200190815260200160002060006101000a81548160ff021916908315150217905550611ba0611634565b73ffffffffffffffffffffffffffffffffffffffff168173ffffffffffffffffffffffffffffffffffffffff16837f2f8788117e7eff1d82e926ec794901d17c78024a50270940304540a733656f0d60405160405180910390a45b5050565b6000611c09612767565b905090565b611c18828261113f565b15611cec57600060fb600084815260200190815260200160002060000160008373ffffffffffffffffffffffffffffffffffffffff1673ffffffffffffffffffffffffffffffffffffffff16815260200190815260200160002060006101000a81548160ff021916908315150217905550611c91611634565b73ffffffffffffffffffffffffffffffffffffffff168173ffffffffffffffffffffffffffffffffffffffff16837ff6391f5c32d9c69d2a47ea670b442974b53935d1edc7fd64eb21e047a839171b60405160405180910390a45b5050565b611cf86127cb565b6000609760006101000a81548160ff0219169083151502179055507f5db9ee0a495bf2e6ff9c91a7834c1ba4fdd244a5e8aa4e537bd38aeae4b073aa611d3c611634565b604051611d4991906143ae565b60405180910390a1565b600073ffffffffffffffffffffffffffffffffffffffff168273ffffffffffffffffffffffffffffffffffffffff1603611dc2576040517f08c379a0000000000000000000000000000000000000000000000000000000008152600401611db990614415565b60405180910390fd5b611dce60008383612635565b8060356000828254611de09190613a6b565b9250508190555080603360008473ffffffffffffffffffffffffffffffffffffffff1673ffffffffffffffffffffffffffffffffffffffff168152602001908152602001600020600082825401925050819055508173ffffffffffffffffffffffffffffffffffffffff16600073ffffffffffffffffffffffffffffffffffffffff167fddf252ad1be2c89b69c2b068fc378daa952ba7f163c4a11628f55a4df523b3ef83604051611e929190613245565b60405180910390a3611ea6600083836126dd565b5050565b600073ffffffffffffffffffffffffffffffffffffffff168273ffffffffffffffffffffffffffffffffffffffff1603611f19576040517f08c379a0000000000000000000000000000000000000000000000000000000008152600401611f10906144a7565b60405180910390fd5b611f2582600083612635565b6000603360008473ffffffffffffffffffffffffffffffffffffffff1673ffffffffffffffffffffffffffffffffffffffff16815260200190815260200160002054905081811015611fac576040517f08c379a0000000000000000000000000000000000000000000000000000000008152600401611fa390614539565b60405180910390fd5b818103603360008573ffffffffffffffffffffffffffffffffffffffff1673ffffffffffffffffffffffffffffffffffffffff1681526020019081526020016000208190555081603560008282540392505081905550600073ffffffffffffffffffffffffffffffffffffffff168373ffffffffffffffffffffffffffffffffffffffff167fddf252ad1be2c89b69c2b068fc378daa952ba7f163c4a11628f55a4df523b3ef846040516120609190613245565b60405180910390a3612074836000846126dd565b505050565b60006101c660008373ffffffffffffffffffffffffffffffffffffffff1673ffffffffffffffffffffffffffffffffffffffff16815260200190815260200160002060006101000a81548160ff02191690831515021790555050565b6000808273ffffffffffffffffffffffffffffffffffffffff163b119050919050565b600060019054906101000a900460ff16612147576040517f08c379a000000000000000000000000000000000000000000000000000000000815260040161213e906145cb565b60405180910390fd5b6121518282612814565b5050565b600060019054906101000a900460ff166121a4576040517f08c379a000000000000000000000000000000000000000000000000000000000815260040161219b906145cb565b60405180910390fd5b565b600060019054906101000a900460ff166121f5576040517f08c379a00000000000000000000000000000000000000000000000000000000081526004016121ec906145cb565b60405180910390fd5b6121fd612887565b565b600060019054906101000a900460ff1661224e576040517f08c379a0000000000000000000000000000000000000000000000000000000008152600401612245906145cb565b60405180910390fd5b565b600060019054906101000a900460ff1661229f576040517f08c379a0000000000000000000000000000000000000000000000000000000008152600401612296906145cb565b60405180910390fd5b6122de816040518060400160405280600181526020017f31000000000000000000000000000000000000000000000000000000000000008152506128f3565b50565b600060019054906101000a900460ff16612330576040517f08c379a0000000000000000000000000000000000000000000000000000000008152600401612327906145cb565b60405180910390fd5b565b600060019054906101000a900460ff16612381576040517f08c379a0000000000000000000000000000000000000000000000000000000008152600401612378906145cb565b60405180910390fd5b565b600090565b600081600001549050919050565b61239e61297e565b6001609760006101000a81548160ff0219169083151502179055507f62e78cea01bee320cd4e420270b5ea74000d11b0c9f74754ebdbfc544b05a2586123e2611634565b6040516123ef91906143ae565b60405180910390a1565b606061012f805461240990613979565b80601f016020809104026020016040519081016040528092919081815260200182805461243590613979565b80156124825780601f1061245757610100808354040283529160200191612482565b820191906000526020600020905b81548152906001019060200180831161246557829003601f168201915b5050505050905090565b6060610130805461249c90613979565b80601f01602080910402602001604051908101604052809291908181526020018280546124c890613979565b80156125155780601f106124ea57610100808354040283529160200191612515565b820191906000526020600020905b8154815290600101906020018083116124f857829003601f168201915b5050505050905090565b60016101c660008373ffffffffffffffffffffffffffffffffffffffff1673ffffffffffffffffffffffffffffffffffffffff16815260200190815260200160002060006101000a81548160ff02191690831515021790555050565b60008061016160008473ffffffffffffffffffffffffffffffffffffffff1673ffffffffffffffffffffffffffffffffffffffff16815260200190815260200160002090506125c981612388565b91506125d4816129c8565b50919050565b60006125ed6125e7611bff565b836129de565b9050919050565b600080600061260587878787612a1f565b9150915061261281612b01565b8192505050949350505050565b600092915050565b6126318282611eaa565b5050565b61263d61297e565b826101c660008273ffffffffffffffffffffffffffffffffffffffff1673ffffffffffffffffffffffffffffffffffffffff16815260200190815260200160002060009054906101000a900460ff16156126cc576040517f08c379a00000000000000000000000000000000000000000000000000000000081526004016126c39061465d565b60405180910390fd5b6126d7848484612c67565b50505050565b505050565b6126ec828261113f565b612763576126f981612c6c565b6127078360001c6020612c99565b604051602001612718929190614751565b6040516020818303038152906040526040517f08c379a000000000000000000000000000000000000000000000000000000000815260040161275a9190613140565b60405180910390fd5b5050565b60007f8b73c3c69bb8fe3d512ecc4cf759cc79239f7b179b0ffacaa9a75d522b39400f612792612ed5565b61279a612f41565b46306040516020016127b095949392919061478b565b60405160208183030381529060405280519060200120905090565b6127d3610c9b565b612812576040517f08c379a00000000000000000000000000000000000000000000000000000000081526004016128099061482a565b60405180910390fd5b565b600060019054906101000a900460ff16612863576040517f08c379a000000000000000000000000000000000000000000000000000000000815260040161285a906145cb565b60405180910390fd5b816036908161287291906149ec565b50806037908161288291906149ec565b505050565b600060019054906101000a900460ff166128d6576040517f08c379a00000000000000000000000000000000000000000000000000000000081526004016128cd906145cb565b60405180910390fd5b6000609760006101000a81548160ff021916908315150217905550565b600060019054906101000a900460ff16612942576040517f08c379a0000000000000000000000000000000000000000000000000000000008152600401612939906145cb565b60405180910390fd5b8161012f908161295291906149ec565b5080610130908161296391906149ec565b506000801b61012d819055506000801b61012e819055505050565b612986610c9b565b156129c6576040517f08c379a00000000000000000000000000000000000000000000000000000000081526004016129bd90614b0a565b60405180910390fd5b565b6001816000016000828254019250508190555050565b60006040517f190100000000000000000000000000000000000000000000000000000000000081528360028201528260228201526042812091505092915050565b6000807f7fffffffffffffffffffffffffffffff5d576e7357a4501ddfe92f46681b20a08360001c1115612a5a576000600391509150612af8565b600060018787878760405160008152602001604052604051612a7f9493929190614b2a565b6020604051602081039080840390855afa158015612aa1573d6000803e3d6000fd5b505050602060405103519050600073ffffffffffffffffffffffffffffffffffffffff168173ffffffffffffffffffffffffffffffffffffffff1603612aef57600060019250925050612af8565b80600092509250505b94509492505050565b60006004811115612b1557612b14614b6f565b5b816004811115612b2857612b27614b6f565b5b0315612c645760016004811115612b4257612b41614b6f565b5b816004811115612b5557612b54614b6f565b5b03612b95576040517f08c379a0000000000000000000000000000000000000000000000000000000008152600401612b8c90614bea565b60405180910390fd5b60026004811115612ba957612ba8614b6f565b5b816004811115612bbc57612bbb614b6f565b5b03612bfc576040517f08c379a0000000000000000000000000000000000000000000000000000000008152600401612bf390614c56565b60405180910390fd5b60036004811115612c1057612c0f614b6f565b5b816004811115612c2357612c22614b6f565b5b03612c63576040517f08c379a0000000000000000000000000000000000000000000000000000000008152600401612c5a90614ce8565b60405180910390fd5b5b50565b505050565b6060612c928273ffffffffffffffffffffffffffffffffffffffff16601460ff16612c99565b9050919050565b606060006002836002612cac9190614d08565b612cb69190613a6b565b67ffffffffffffffff811115612ccf57612cce6133e7565b5b6040519080825280601f01601f191660200182016040528015612d015781602001600182028036833780820191505090505b5090507f300000000000000000000000000000000000000000000000000000000000000081600081518110612d3957612d38614d4a565b5b60200101907effffffffffffffffffffffffffffffffffffffffffffffffffffffffffffff1916908160001a9053507f780000000000000000000000000000000000000000000000000000000000000081600181518110612d9d57612d9c614d4a565b5b60200101907effffffffffffffffffffffffffffffffffffffffffffffffffffffffffffff1916908160001a90535060006001846002612ddd9190614d08565b612de79190613a6b565b90505b6001811115612e87577f3031323334353637383961626364656600000000000000000000000000000000600f861660108110612e2957612e28614d4a565b5b1a60f81b828281518110612e4057612e3f614d4a565b5b60200101907effffffffffffffffffffffffffffffffffffffffffffffffffffffffffffff1916908160001a905350600485901c945080612e8090614d79565b9050612dea565b5060008414612ecb576040517f08c379a0000000000000000000000000000000000000000000000000000000008152600401612ec290614dee565b60405180910390fd5b8091505092915050565b600080612ee06123f9565b9050600081511115612efc578080519060200120915050612f3e565b600061012d5490506000801b8114612f18578092505050612f3e565b7fc5d2460186f7233c927e7db2dcc703c0e500b653ca82273b7bfad8045d85a470925050505b90565b600080612f4c61248c565b9050600081511115612f68578080519060200120915050612faa565b600061012e5490506000801b8114612f84578092505050612faa565b7fc5d2460186f7233c927e7db2dcc703c0e500b653ca82273b7bfad8045d85a470925050505b90565b6000604051905090565b600080fd5b600080fd5b60007fffffffff0000000000000000000000000000000000000000000000000000000082169050919050565b612ff681612fc1565b811461300157600080fd5b50565b60008135905061301381612fed565b92915050565b60006020828403121561302f5761302e612fb7565b5b600061303d84828501613004565b91505092915050565b60008115159050919050565b61305b81613046565b82525050565b60006020820190506130766000830184613052565b92915050565b6000819050919050565b61308f8161307c565b82525050565b60006020820190506130aa6000830184613086565b92915050565b600081519050919050565b600082825260208201905092915050565b60005b838110156130ea5780820151818401526020810190506130cf565b60008484015250505050565b6000601f19601f8301169050919050565b6000613112826130b0565b61311c81856130bb565b935061312c8185602086016130cc565b613135816130f6565b840191505092915050565b6000602082019050818103600083015261315a8184613107565b905092915050565b600073ffffffffffffffffffffffffffffffffffffffff82169050919050565b600061318d82613162565b9050919050565b61319d81613182565b81146131a857600080fd5b50565b6000813590506131ba81613194565b92915050565b6000819050919050565b6131d3816131c0565b81146131de57600080fd5b50565b6000813590506131f0816131ca565b92915050565b6000806040838503121561320d5761320c612fb7565b5b600061321b858286016131ab565b925050602061322c858286016131e1565b9150509250929050565b61323f816131c0565b82525050565b600060208201905061325a6000830184613236565b92915050565b60008060006060848603121561327957613278612fb7565b5b6000613287868287016131ab565b9350506020613298868287016131ab565b92505060406132a9868287016131e1565b9150509250925092565b6132bc8161307c565b81146132c757600080fd5b50565b6000813590506132d9816132b3565b92915050565b6000602082840312156132f5576132f4612fb7565b5b6000613303848285016132ca565b91505092915050565b6000806040838503121561332357613322612fb7565b5b6000613331858286016132ca565b9250506020613342858286016131ab565b9150509250929050565b600060ff82169050919050565b6133628161334c565b82525050565b600060208201905061337d6000830184613359565b92915050565b60006020828403121561339957613398612fb7565b5b60006133a7848285016131e1565b91505092915050565b6000602082840312156133c6576133c5612fb7565b5b60006133d4848285016131ab565b91505092915050565b600080fd5b600080fd5b7f4e487b7100000000000000000000000000000000000000000000000000000000600052604160045260246000fd5b61341f826130f6565b810181811067ffffffffffffffff8211171561343e5761343d6133e7565b5b80604052505050565b6000613451612fad565b905061345d8282613416565b919050565b600067ffffffffffffffff82111561347d5761347c6133e7565b5b613486826130f6565b9050602081019050919050565b82818337600083830152505050565b60006134b56134b084613462565b613447565b9050828152602081018484840111156134d1576134d06133e2565b5b6134dc848285613493565b509392505050565b600082601f8301126134f9576134f86133dd565b5b81356135098482602086016134a2565b91505092915050565b6000806040838503121561352957613528612fb7565b5b600083013567ffffffffffffffff81111561354757613546612fbc565b5b613553858286016134e4565b925050602083013567ffffffffffffffff81111561357457613573612fbc565b5b613580858286016134e4565b9150509250929050565b600061359582613182565b9050919050565b6135a58161358a565b81146135b057600080fd5b50565b6000813590506135c28161359c565b92915050565b600080fd5b600080fd5b60008083601f8401126135e8576135e76133dd565b5b8235905067ffffffffffffffff811115613605576136046135c8565b5b602083019150836001820283011115613621576136206135cd565b5b9250929050565b60008060008060006080868803121561364457613643612fb7565b5b6000613652888289016135b3565b9550506020613663888289016131ab565b9450506040613674888289016131e1565b935050606086013567ffffffffffffffff81111561369557613694612fbc565b5b6136a1888289016135d2565b92509250509295509295909350565b60007fff0000000000000000000000000000000000000000000000000000000000000082169050919050565b6136e5816136b0565b82525050565b6136f481613182565b82525050565b600081519050919050565b600082825260208201905092915050565b6000819050602082019050919050565b61372f816131c0565b82525050565b60006137418383613726565b60208301905092915050565b6000602082019050919050565b6000613765826136fa565b61376f8185613705565b935061377a83613716565b8060005b838110156137ab5781516137928882613735565b975061379d8361374d565b92505060018101905061377e565b5085935050505092915050565b600060e0820190506137cd600083018a6136dc565b81810360208301526137df8189613107565b905081810360408301526137f38188613107565b90506138026060830187613236565b61380f60808301866136eb565b61381c60a0830185613086565b81810360c083015261382e818461375a565b905098975050505050505050565b6138458161334c565b811461385057600080fd5b50565b6000813590506138628161383c565b92915050565b600080600080600080600060e0888a03121561388757613886612fb7565b5b60006138958a828b016131ab565b97505060206138a68a828b016131ab565b96505060406138b78a828b016131e1565b95505060606138c88a828b016131e1565b94505060806138d98a828b01613853565b93505060a06138ea8a828b016132ca565b92505060c06138fb8a828b016132ca565b91505092959891949750929550565b6000806040838503121561392157613920612fb7565b5b600061392f858286016131ab565b9250506020613940858286016131ab565b9150509250929050565b7f4e487b7100000000000000000000000000000000000000000000000000000000600052602260045260246000fd5b6000600282049050600182168061399157607f821691505b6020821081036139a4576139a361394a565b5b50919050565b7f416363657373436f6e74726f6c3a2063616e206f6e6c792072656e6f756e636560008201527f20726f6c657320666f722073656c660000000000000000000000000000000000602082015250565b6000613a06602f836130bb565b9150613a11826139aa565b604082019050919050565b60006020820190508181036000830152613a35816139f9565b9050919050565b7f4e487b7100000000000000000000000000000000000000000000000000000000600052601160045260246000fd5b6000613a76826131c0565b9150613a81836131c0565b9250828201905080821115613a9957613a98613a3c565b5b92915050565b7f496e697469616c697a61626c653a20636f6e747261637420697320616c72656160008201527f647920696e697469616c697a6564000000000000000000000000000000000000602082015250565b6000613afb602e836130bb565b9150613b0682613a9f565b604082019050919050565b60006020820190508181036000830152613b2a81613aee565b9050919050565b6000819050919050565b6000819050919050565b6000613b60613b5b613b5684613b31565b613b3b565b61334c565b9050919050565b613b7081613b45565b82525050565b6000602082019050613b8b6000830184613b67565b92915050565b7f4552433230466c6173684d696e743a20616d6f756e742065786365656473206d60008201527f6178466c6173684c6f616e000000000000000000000000000000000000000000602082015250565b6000613bed602b836130bb565b9150613bf882613b91565b604082019050919050565b60006020820190508181036000830152613c1c81613be0565b9050919050565b600082825260208201905092915050565b6000613c408385613c23565b9350613c4d838584613493565b613c56836130f6565b840190509392505050565b600060a082019050613c7660008301896136eb565b613c8360208301886136eb565b613c906040830187613236565b613c9d6060830186613236565b8181036080830152613cb0818486613c34565b9050979650505050505050565b600081519050613ccc816132b3565b92915050565b600060208284031215613ce857613ce7612fb7565b5b6000613cf684828501613cbd565b91505092915050565b7f4552433230466c6173684d696e743a20696e76616c69642072657475726e207660008201527f616c756500000000000000000000000000000000000000000000000000000000602082015250565b6000613d5b6024836130bb565b9150613d6682613cff565b604082019050919050565b60006020820190508181036000830152613d8a81613d4e565b9050919050565b6000613d9c826131c0565b9150613da7836131c0565b9250828203905081811115613dbf57613dbe613a3c565b5b92915050565b7f4549503731323a20556e696e697469616c697a65640000000000000000000000600082015250565b6000613dfb6015836130bb565b9150613e0682613dc5565b602082019050919050565b60006020820190508181036000830152613e2a81613dee565b9050919050565b7f45524332303a2064656372656173656420616c6c6f77616e63652062656c6f7760008201527f207a65726f000000000000000000000000000000000000000000000000000000602082015250565b6000613e8d6025836130bb565b9150613e9882613e31565b604082019050919050565b60006020820190508181036000830152613ebc81613e80565b9050919050565b7f45524332305065726d69743a206578706972656420646561646c696e65000000600082015250565b6000613ef9601d836130bb565b9150613f0482613ec3565b602082019050919050565b60006020820190508181036000830152613f2881613eec565b9050919050565b600060c082019050613f446000830189613086565b613f5160208301886136eb565b613f5e60408301876136eb565b613f6b6060830186613236565b613f786080830185613236565b613f8560a0830184613236565b979650505050505050565b7f45524332305065726d69743a20696e76616c6964207369676e61747572650000600082015250565b6000613fc6601e836130bb565b9150613fd182613f90565b602082019050919050565b60006020820190508181036000830152613ff581613fb9565b9050919050565b7f4552433230466c6173684d696e743a2077726f6e6720746f6b656e0000000000600082015250565b6000614032601b836130bb565b915061403d82613ffc565b602082019050919050565b6000602082019050818103600083015261406181614025565b9050919050565b7f45524332303a20617070726f76652066726f6d20746865207a65726f2061646460008201527f7265737300000000000000000000000000000000000000000000000000000000602082015250565b60006140c46024836130bb565b91506140cf82614068565b604082019050919050565b600060208201905081810360008301526140f3816140b7565b9050919050565b7f45524332303a20617070726f766520746f20746865207a65726f20616464726560008201527f7373000000000000000000000000000000000000000000000000000000000000602082015250565b60006141566022836130bb565b9150614161826140fa565b604082019050919050565b6000602082019050818103600083015261418581614149565b9050919050565b7f45524332303a20696e73756666696369656e7420616c6c6f77616e6365000000600082015250565b60006141c2601d836130bb565b91506141cd8261418c565b602082019050919050565b600060208201905081810360008301526141f1816141b5565b9050919050565b7f45524332303a207472616e736665722066726f6d20746865207a65726f20616460008201527f6472657373000000000000000000000000000000000000000000000000000000602082015250565b60006142546025836130bb565b915061425f826141f8565b604082019050919050565b6000602082019050818103600083015261428381614247565b9050919050565b7f45524332303a207472616e7366657220746f20746865207a65726f206164647260008201527f6573730000000000000000000000000000000000000000000000000000000000602082015250565b60006142e66023836130bb565b91506142f18261428a565b604082019050919050565b60006020820190508181036000830152614315816142d9565b9050919050565b7f45524332303a207472616e7366657220616d6f756e742065786365656473206260008201527f616c616e63650000000000000000000000000000000000000000000000000000602082015250565b60006143786026836130bb565b91506143838261431c565b604082019050919050565b600060208201905081810360008301526143a78161436b565b9050919050565b60006020820190506143c360008301846136eb565b92915050565b7f45524332303a206d696e7420746f20746865207a65726f206164647265737300600082015250565b60006143ff601f836130bb565b915061440a826143c9565b602082019050919050565b6000602082019050818103600083015261442e816143f2565b9050919050565b7f45524332303a206275726e2066726f6d20746865207a65726f2061646472657360008201527f7300000000000000000000000000000000000000000000000000000000000000602082015250565b60006144916021836130bb565b915061449c82614435565b604082019050919050565b600060208201905081810360008301526144c081614484565b9050919050565b7f45524332303a206275726e20616d6f756e7420657863656564732062616c616e60008201527f6365000000000000000000000000000000000000000000000000000000000000602082015250565b60006145236022836130bb565b915061452e826144c7565b604082019050919050565b6000602082019050818103600083015261455281614516565b9050919050565b7f496e697469616c697a61626c653a20636f6e7472616374206973206e6f74206960008201527f6e697469616c697a696e67000000000000000000000000000000000000000000602082015250565b60006145b5602b836130bb565b91506145c082614559565b604082019050919050565b600060208201905081810360008301526145e4816145a8565b9050919050565b7f4552433230436f6d706c69616e63653a206163636f756e742069732066726f7a60008201527f656e000000000000000000000000000000000000000000000000000000000000602082015250565b60006146476022836130bb565b9150614652826145eb565b604082019050919050565b600060208201905081810360008301526146768161463a565b9050919050565b600081905092915050565b7f416363657373436f6e74726f6c3a206163636f756e7420000000000000000000600082015250565b60006146be60178361467d565b91506146c982614688565b601782019050919050565b60006146df826130b0565b6146e9818561467d565b93506146f98185602086016130cc565b80840191505092915050565b7f206973206d697373696e6720726f6c6520000000000000000000000000000000600082015250565b600061473b60118361467d565b915061474682614705565b601182019050919050565b600061475c826146b1565b915061476882856146d4565b91506147738261472e565b915061477f82846146d4565b91508190509392505050565b600060a0820190506147a06000830188613086565b6147ad6020830187613086565b6147ba6040830186613086565b6147c76060830185613236565b6147d460808301846136eb565b9695505050505050565b7f5061757361626c653a206e6f7420706175736564000000000000000000000000600082015250565b60006148146014836130bb565b915061481f826147de565b602082019050919050565b6000602082019050818103600083015261484381614807565b9050919050565b60008190508160005260206000209050919050565b60006020601f8301049050919050565b600082821b905092915050565b6000600883026148ac7fffffffffffffffffffffffffffffffffffffffffffffffffffffffffffffffff8261486f565b6148b6868361486f565b95508019841693508086168417925050509392505050565b60006148e96148e46148df846131c0565b613b3b565b6131c0565b9050919050565b6000819050919050565b614903836148ce565b61491761490f826148f0565b84845461487c565b825550505050565b600090565b61492c61491f565b6149378184846148fa565b505050565b5b8181101561495b57614950600082614924565b60018101905061493d565b5050565b601f8211156149a0576149718161484a565b61497a8461485f565b81016020851015614989578190505b61499d6149958561485f565b83018261493c565b50505b505050565b600082821c905092915050565b60006149c3600019846008026149a5565b1980831691505092915050565b60006149dc83836149b2565b9150826002028217905092915050565b6149f5826130b0565b67ffffffffffffffff811115614a0e57614a0d6133e7565b5b614a188254613979565b614a2382828561495f565b600060209050601f831160018114614a565760008415614a44578287015190505b614a4e85826149d0565b865550614ab6565b601f198416614a648661484a565b60005b82811015614a8c57848901518255600182019150602085019450602081019050614a67565b86831015614aa95784890151614aa5601f8916826149b2565b8355505b6001600288020188555050505b505050505050565b7f5061757361626c653a2070617573656400000000000000000000000000000000600082015250565b6000614af46010836130bb565b9150614aff82614abe565b602082019050919050565b60006020820190508181036000830152614b2381614ae7565b9050919050565b6000608082019050614b3f6000830187613086565b614b4c6020830186613359565b614b596040830185613086565b614b666060830184613086565b95945050505050565b7f4e487b7100000000000000000000000000000000000000000000000000000000600052602160045260246000fd5b7f45434453413a20696e76616c6964207369676e61747572650000000000000000600082015250565b6000614bd46018836130bb565b9150614bdf82614b9e565b602082019050919050565b60006020820190508181036000830152614c0381614bc7565b9050919050565b7f45434453413a20696e76616c6964207369676e6174757265206c656e67746800600082015250565b6000614c40601f836130bb565b9150614c4b82614c0a565b602082019050919050565b60006020820190508181036000830152614c6f81614c33565b9050919050565b7f45434453413a20696e76616c6964207369676e6174757265202773272076616c60008201527f7565000000000000000000000000000000000000000000000000000000000000602082015250565b6000614cd26022836130bb565b9150614cdd82614c76565b604082019050919050565b60006020820190508181036000830152614d0181614cc5565b9050919050565b6000614d13826131c0565b9150614d1e836131c0565b9250828202614d2c816131c0565b91508282048414831517614d4357614d42613a3c565b5b5092915050565b7f4e487b7100000000000000000000000000000000000000000000000000000000600052603260045260246000fd5b6000614d84826131c0565b915060008203614d9757614d96613a3c565b5b600182039050919050565b7f537472696e67733a20686578206c656e67746820696e73756666696369656e74600082015250565b6000614dd86020836130bb565b9150614de382614da2565b602082019050919050565b60006020820190508181036000830152614e0781614dcb565b905091905056fea26469706673582212203c48f34fff095512bbd635df18bfc8843584efddd582919746a75beb6993e42c64736f6c63430008130033",
  "devdoc": {
    "events": {
      "Approval(address,address,uint256)": {
        "details": "Emitted when the allowance of a `spender` for an `owner` is set by a call to {approve}. `value` is the new allowance."
      },
      "EIP712DomainChanged()": {
        "details": "MAY be emitted to signal that the domain could have changed."
      },
      "Initialized(uint8)": {
        "details": "Triggered when the contract has been initialized or reinitialized."
      },
      "Paused(address)": {
        "details": "Emitted when the pause is triggered by `account`."
      },
      "RoleAdminChanged(bytes32,bytes32,bytes32)": {
        "details": "Emitted when `newAdminRole` is set as ``role``'s admin role, replacing `previousAdminRole` `DEFAULT_ADMIN_ROLE` is the starting admin for all roles, despite {RoleAdminChanged} not being emitted signaling this. _Available since v3.1._"
      },
      "RoleGranted(bytes32,address,address)": {
        "details": "Emitted when `account` is granted `role`. `sender` is the account that originated the contract call, an admin role bearer except when using {AccessControl-_setupRole}."
      },
      "RoleRevoked(bytes32,address,address)": {
        "details": "Emitted when `account` is revoked `role`. `sender` is the account that originated the contract call:   - if using `revokeRole`, it is the admin role bearer   - if using `renounceRole`, it is the role bearer (i.e. `account`)"
      },
      "Transfer(address,address,uint256)": {
        "details": "Emitted when `value` tokens are moved from one account (`from`) to another (`to`). Note that `value` may be zero."
      },
      "Unpaused(address)": {
        "details": "Emitted when the pause is lifted by `account`."
      }
    },
    "kind": "dev",
    "methods": {
      "DOMAIN_SEPARATOR()": {
        "details": "See {IERC20Permit-DOMAIN_SEPARATOR}."
      },
      "allowance(address,address)": {
        "details": "See {IERC20-allowance}."
      },
      "approve(address,uint256)": {
        "details": "See {IERC20-approve}. NOTE: If `amount` is the maximum `uint256`, the allowance is not updated on `transferFrom`. This is semantically equivalent to an infinite approval. Requirements: - `spender` cannot be the zero address."
      },
      "balanceOf(address)": {
        "details": "See {IERC20-balanceOf}."
      },
      "burn(uint256)": {
        "details": "Destroys `amount` tokens from the caller. See {ERC20-_burn}."
      },
      "burnFrom(address,uint256)": {
        "details": "Destroys `amount` tokens from `account`, deducting from the caller's allowance. See {ERC20-_burn} and {ERC20-allowance}. Requirements: - the caller must have allowance for ``accounts``'s tokens of at least `amount`."
      },
      "constructor": {
        "custom:oz-upgrades-unsafe-allow": "constructor"
      },
      "decimals()": {
        "details": "Returns the number of decimals used to get its user representation. For example, if `decimals` equals `2`, a balance of `505` tokens should be displayed to a user as `5.05` (`505 / 10 ** 2`). Tokens usually opt for a value of 18, imitating the relationship between Ether and Wei. This is the default value returned by this function, unless it's overridden. NOTE: This information is only used for _display_ purposes: it in no way affects any of the arithmetic of the contract, including {IERC20-balanceOf} and {IERC20-transfer}."
      },
      "decreaseAllowance(address,uint256)": {
        "details": "Atomically decreases the allowance granted to `spender` by the caller. This is an alternative to {approve} that can be used as a mitigation for problems described in {IERC20-approve}. Emits an {Approval} event indicating the updated allowance. Requirements: - `spender` cannot be the zero address. - `spender` must have allowance for the caller of at least `subtractedValue`."
      },
      "eip712Domain()": {
        "details": "See {EIP-5267}. _Available since v4.9._"
      },
      "flashFee(address,uint256)": {
        "details": "Returns the fee applied when doing flash loans. This function calls the {_flashFee} function which returns the fee applied when doing flash loans.",
        "params": {
          "amount": "The amount of tokens to be loaned.",
          "token": "The token to be flash loaned."
        },
        "returns": {
          "_0": "The fees applied to the corresponding flash loan."
        }
      },
      "flashLoan(address,address,uint256,bytes)": {
        "details": "Performs a flash loan. New tokens are minted and sent to the `receiver`, who is required to implement the {IERC3156FlashBorrower} interface. By the end of the flash loan, the receiver is expected to own amount + fee tokens and have them approved back to the token contract itself so they can be burned.",
        "params": {
          "amount": "The amount of tokens to be loaned.",
          "data": "An arbitrary datafield that is passed to the receiver.",
          "receiver": "The receiver of the flash loan. Should implement the {IERC3156FlashBorrower-onFlashLoan} interface.",
          "token": "The token to be flash loaned. Only `address(this)` is supported."
        },
        "returns": {
          "_0": "`true` if the flash loan was successful."
        }
      },
      "getRoleAdmin(bytes32)": {
        "details": "Returns the admin role that controls `role`. See {grantRole} and {revokeRole}. To change a role's admin, use {_setRoleAdmin}."
      },
      "grantRole(bytes32,address)": {
        "details": "Grants `role` to `account`. If `account` had not been already granted `role`, emits a {RoleGranted} event. Requirements: - the caller must have ``role``'s admin role. May emit a {RoleGranted} event."
      },
      "hasRole(bytes32,address)": {
        "details": "Returns `true` if `account` has been granted `role`."
      },
      "increaseAllowance(address,uint256)": {
        "details": "Atomically increases the allowance granted to `spender` by the caller. This is an alternative to {approve} that can be used as a mitigation for problems described in {IERC20-approve}. Emits an {Approval} event indicating the updated allowance. Requirements: - `spender` cannot be the zero address."
      },
      "maxFlashLoan(address)": {
        "details": "Returns the maximum amount of tokens available for loan.",
        "params": {
          "token": "The address of the token that is requested."
        },
        "returns": {
          "_0": "The amount of token that can be loaned."
        }
      },
      "name()": {
        "details": "Returns the name of the token."
      },
      "nonces(address)": {
        "details": "See {IERC20Permit-nonces}."
      },
      "paused()": {
        "details": "Returns true if the contract is paused, and false otherwise."
      },
      "permit(address,address,uint256,uint256,uint8,bytes32,bytes32)": {
        "details": "See {IERC20Permit-permit}."
      },
      "renounceRole(bytes32,address)": {
        "details": "Revokes `role` from the calling account. Roles are often managed via {grantRole} and {revokeRole}: this function's purpose is to provide a mechanism for accounts to lose their privileges if they are compromised (such as when a trusted device is misplaced). If the calling account had been revoked `role`, emits a {RoleRevoked} event. Requirements: - the caller must be `account`. May emit a {RoleRevoked} event."
      },
      "revokeRole(bytes32,address)": {
        "details": "Revokes `role` from `account`. If `account` had been granted `role`, emits a {RoleRevoked} event. Requirements: - the caller must have ``role``'s admin role. May emit a {RoleRevoked} event."
      },
      "supportsInterface(bytes4)": {
        "details": "See {IERC165-supportsInterface}."
      },
      "symbol()": {
        "details": "Returns the symbol of the token, usually a shorter version of the name."
      },
      "totalSupply()": {
        "details": "See {IERC20-totalSupply}."
      },
      "transfer(address,uint256)": {
        "details": "See {IERC20-transfer}. Requirements: - `to` cannot be the zero address. - the caller must have a balance of at least `amount`."
      },
      "transferFrom(address,address,uint256)": {
        "details": "See {IERC20-transferFrom}. Emits an {Approval} event indicating the updated allowance. This is not required by the EIP. See the note at the beginning of {ERC20}. NOTE: Does not update the allowance if the current allowance is the maximum `uint256`. Requirements: - `from` and `to` cannot be the zero address. - `from` must have a balance of at least `amount`. - the caller must have allowance for ``from``'s tokens of at least `amount`."
      }
    },
    "version": 1
  },
  "userdoc": {
    "kind": "user",
    "methods": {},
    "version": 1
  },
  "storageLayout": {
    "storage": [
      {
        "astId": 498,
        "contract": "contracts/ERC20StablecoinUpgradeable.sol:ERC20StablecoinUpgradeable",
        "label": "_initialized",
        "offset": 0,
        "slot": "0",
        "type": "t_uint8"
      },
      {
        "astId": 501,
        "contract": "contracts/ERC20StablecoinUpgradeable.sol:ERC20StablecoinUpgradeable",
        "label": "_initializing",
        "offset": 1,
        "slot": "0",
        "type": "t_bool"
      },
      {
        "astId": 2401,
        "contract": "contracts/ERC20StablecoinUpgradeable.sol:ERC20StablecoinUpgradeable",
        "label": "__gap",
        "offset": 0,
        "slot": "1",
        "type": "t_array(t_uint256)50_storage"
      },
      {
        "astId": 806,
        "contract": "contracts/ERC20StablecoinUpgradeable.sol:ERC20StablecoinUpgradeable",
        "label": "_balances",
        "offset": 0,
        "slot": "51",
        "type": "t_mapping(t_address,t_uint256)"
      },
      {
        "astId": 812,
        "contract": "contracts/ERC20StablecoinUpgradeable.sol:ERC20StablecoinUpgradeable",
        "label": "_allowances",
        "offset": 0,
        "slot": "52",
        "type": "t_mapping(t_address,t_mapping(t_address,t_uint256))"
      },
      {
        "astId": 814,
        "contract": "contracts/ERC20StablecoinUpgradeable.sol:ERC20StablecoinUpgradeable",
        "label": "_totalSupply",
        "offset": 0,
        "slot": "53",
        "type": "t_uint256"
      },
      {
        "astId": 816,
        "contract": "contracts/ERC20StablecoinUpgradeable.sol:ERC20StablecoinUpgradeable",
        "label": "_name",
        "offset": 0,
        "slot": "54",
        "type": "t_string_storage"
      },
      {
        "astId": 818,
        "contract": "contracts/ERC20StablecoinUpgradeable.sol:ERC20StablecoinUpgradeable",
        "label": "_symbol",
        "offset": 0,
        "slot": "55",
        "type": "t_string_storage"
      },
      {
        "astId": 1398,
        "contract": "contracts/ERC20StablecoinUpgradeable.sol:ERC20StablecoinUpgradeable",
        "label": "__gap",
        "offset": 0,
        "slot": "56",
        "type": "t_array(t_uint256)45_storage"
      },
      {
        "astId": 1540,
        "contract": "contracts/ERC20StablecoinUpgradeable.sol:ERC20StablecoinUpgradeable",
        "label": "__gap",
        "offset": 0,
        "slot": "101",
        "type": "t_array(t_uint256)50_storage"
      },
      {
        "astId": 681,
        "contract": "contracts/ERC20StablecoinUpgradeable.sol:ERC20StablecoinUpgradeable",
        "label": "_paused",
        "offset": 0,
        "slot": "151",
        "type": "t_bool"
      },
      {
        "astId": 786,
        "contract": "contracts/ERC20StablecoinUpgradeable.sol:ERC20StablecoinUpgradeable",
        "label": "__gap",
        "offset": 0,
        "slot": "152",
        "type": "t_array(t_uint256)49_storage"
      },
      {
        "astId": 3398,
        "contract": "contracts/ERC20StablecoinUpgradeable.sol:ERC20StablecoinUpgradeable",
        "label": "__gap",
        "offset": 0,
        "slot": "201",
        "type": "t_array(t_uint256)50_storage"
      },
      {
        "astId": 39,
        "contract": "contracts/ERC20StablecoinUpgradeable.sol:ERC20StablecoinUpgradeable",
        "label": "_roles",
        "offset": 0,
        "slot": "251",
        "type": "t_mapping(t_bytes32,t_struct(RoleData)34_storage)"
      },
      {
        "astId": 334,
        "contract": "contracts/ERC20StablecoinUpgradeable.sol:ERC20StablecoinUpgradeable",
        "label": "__gap",
        "offset": 0,
        "slot": "252",
        "type": "t_array(t_uint256)49_storage"
      },
      {
        "astId": 3089,
        "contract": "contracts/ERC20StablecoinUpgradeable.sol:ERC20StablecoinUpgradeable",
        "label": "_hashedName",
        "offset": 0,
        "slot": "301",
        "type": "t_bytes32"
      },
      {
        "astId": 3092,
        "contract": "contracts/ERC20StablecoinUpgradeable.sol:ERC20StablecoinUpgradeable",
        "label": "_hashedVersion",
        "offset": 0,
        "slot": "302",
        "type": "t_bytes32"
      },
      {
        "astId": 3094,
        "contract": "contracts/ERC20StablecoinUpgradeable.sol:ERC20StablecoinUpgradeable",
        "label": "_name",
        "offset": 0,
        "slot": "303",
        "type": "t_string_storage"
      },
      {
        "astId": 3096,
        "contract": "contracts/ERC20StablecoinUpgradeable.sol:ERC20StablecoinUpgradeable",
        "label": "_version",
        "offset": 0,
        "slot": "304",
        "type": "t_string_storage"
      },
      {
        "astId": 3354,
        "contract": "contracts/ERC20StablecoinUpgradeable.sol:ERC20StablecoinUpgradeable",
        "label": "__gap",
        "offset": 0,
        "slot": "305",
        "type": "t_array(t_uint256)48_storage"
      },
      {
        "astId": 1804,
        "contract": "contracts/ERC20StablecoinUpgradeable.sol:ERC20StablecoinUpgradeable",
        "label": "_nonces",
        "offset": 0,
        "slot": "353",
        "type": "t_mapping(t_address,t_struct(Counter)2408_storage)"
      },
      {
        "astId": 1812,
        "contract": "contracts/ERC20StablecoinUpgradeable.sol:ERC20StablecoinUpgradeable",
        "label": "_PERMIT_TYPEHASH_DEPRECATED_SLOT",
        "offset": 0,
        "slot": "354",
        "type": "t_bytes32"
      },
      {
        "astId": 1968,
        "contract": "contracts/ERC20StablecoinUpgradeable.sol:ERC20StablecoinUpgradeable",
        "label": "__gap",
        "offset": 0,
        "slot": "355",
        "type": "t_array(t_uint256)49_storage"
      },
      {
        "astId": 1777,
        "contract": "contracts/ERC20StablecoinUpgradeable.sol:ERC20StablecoinUpgradeable",
        "label": "__gap",
        "offset": 0,
        "slot": "404",
        "type": "t_array(t_uint256)50_storage"
      },
      {
        "astId": 4611,
        "contract": "contracts/ERC20StablecoinUpgradeable.sol:ERC20StablecoinUpgradeable",
        "label": "_frozen",
        "offset": 0,
        "slot": "454",
        "type": "t_mapping(t_address,t_bool)"
      },
      {
        "astId": 4679,
        "contract": "contracts/ERC20StablecoinUpgradeable.sol:ERC20StablecoinUpgradeable",
        "label": "__gap",
        "offset": 0,
        "slot": "455",
        "type": "t_array(t_uint256)50_storage"
      }
    ],
    "types": {
      "t_address": {
        "encoding": "inplace",
        "label": "address",
        "numberOfBytes": "20"
      },
      "t_array(t_uint256)45_storage": {
        "base": "t_uint256",
        "encoding": "inplace",
        "label": "uint256[45]",
        "numberOfBytes": "1440"
      },
      "t_array(t_uint256)48_storage": {
        "base": "t_uint256",
        "encoding": "inplace",
        "label": "uint256[48]",
        "numberOfBytes": "1536"
      },
      "t_array(t_uint256)49_storage": {
        "base": "t_uint256",
        "encoding": "inplace",
        "label": "uint256[49]",
        "numberOfBytes": "1568"
      },
      "t_array(t_uint256)50_storage": {
        "base": "t_uint256",
        "encoding": "inplace",
        "label": "uint256[50]",
        "numberOfBytes": "1600"
      },
      "t_bool": {
        "encoding": "inplace",
        "label": "bool",
        "numberOfBytes": "1"
      },
      "t_bytes32": {
        "encoding": "inplace",
        "label": "bytes32",
        "numberOfBytes": "32"
      },
      "t_mapping(t_address,t_bool)": {
        "encoding": "mapping",
        "key": "t_address",
        "label": "mapping(address => bool)",
        "numberOfBytes": "32",
        "value": "t_bool"
      },
      "t_mapping(t_address,t_mapping(t_address,t_uint256))": {
        "encoding": "mapping",
        "key": "t_address",
        "label": "mapping(address => mapping(address => uint256))",
        "numberOfBytes": "32",
        "value": "t_mapping(t_address,t_uint256)"
      },
      "t_mapping(t_address,t_struct(Counter)2408_storage)": {
        "encoding": "mapping",
        "key": "t_address",
        "label": "mapping(address => struct CountersUpgradeable.Counter)",
        "numberOfBytes": "32",
        "value": "t_struct(Counter)2408_storage"
      },
      "t_mapping(t_address,t_uint256)": {
        "encoding": "mapping",
        "key": "t_address",
        "label": "mapping(address => uint256)",
        "numberOfBytes": "32",
        "value": "t_uint256"
      },
      "t_mapping(t_bytes32,t_struct(RoleData)34_storage)": {
        "encoding": "mapping",
        "key": "t_bytes32",
        "label": "mapping(bytes32 => struct AccessControlUpgradeable.RoleData)",
        "numberOfBytes": "32",
        "value": "t_struct(RoleData)34_storage"
      },
      "t_string_storage": {
        "encoding": "bytes",
        "label": "string",
        "numberOfBytes": "32"
      },
      "t_struct(Counter)2408_storage": {
        "encoding": "inplace",
        "label": "struct CountersUpgradeable.Counter",
        "members": [
          {
            "astId": 2407,
            "contract": "contracts/ERC20StablecoinUpgradeable.sol:ERC20StablecoinUpgradeable",
            "label": "_value",
            "offset": 0,
            "slot": "0",
            "type": "t_uint256"
          }
        ],
        "numberOfBytes": "32"
      },
      "t_struct(RoleData)34_storage": {
        "encoding": "inplace",
        "label": "struct AccessControlUpgradeable.RoleData",
        "members": [
          {
            "astId": 31,
            "contract": "contracts/ERC20StablecoinUpgradeable.sol:ERC20StablecoinUpgradeable",
            "label": "members",
            "offset": 0,
            "slot": "0",
            "type": "t_mapping(t_address,t_bool)"
          },
          {
            "astId": 33,
            "contract": "contracts/ERC20StablecoinUpgradeable.sol:ERC20StablecoinUpgradeable",
            "label": "adminRole",
            "offset": 0,
            "slot": "1",
            "type": "t_bytes32"
          }
        ],
        "numberOfBytes": "64"
      },
      "t_uint256": {
        "encoding": "inplace",
        "label": "uint256",
        "numberOfBytes": "32"
      },
      "t_uint8": {
        "encoding": "inplace",
        "label": "uint8",
        "numberOfBytes": "1"
      }
    }
  }
}