{
  "address": "0x9fEe804768A352742097a6a9E582EcAbFE378F4E",
  "abi": [
    {
      "inputs": [
        {
          "internalType": "string",
          "name": "name",
          "type": "string"
        },
        {
          "internalType": "string",
          "name": "symbol",
          "type": "string"
        }
      ],
      "stateMutability": "nonpayable",
      "type": "constructor"
    },
    {
      "inputs": [],
      "name": "InvalidShortString",
      "type": "error"
    },
    {
      "inputs": [
        {
          "internalType": "string",
          "name": "str",
          "type": "string"
        }
      ],
      "name": "StringTooLong",
      "type": "error"
    },
    {
      "anonymous": false,
      "inputs": [
        {
          "indexed": true,
          "internalType": "address",
          "name": "owner",
          "type": "address"
        },
        {
          "indexed": true,
          "internalType": "address",
          "name": "spender",
          "type": "address"
        },
        {
          "indexed": false,
          "internalType": "uint256",
          "name": "value",
          "type": "uint256"
        }
      ],
      "name": "Approval",
      "type": "event"
    },
    {
      "anonymous": false,
      "inputs": [],
      "name": "EIP712DomainChanged",
      "type": "event"
    },
    {
      "anonymous": false,
      "inputs": [
        {
          "indexed": true,
          "internalType": "address",
          "name": "from",
          "type": "address"
        },
        {
          "indexed": true,
          "internalType": "address",
          "name": "to",
          "type": "address"
        },
        {
          "indexed": true,
          "internalType": "address",
          "name": "issuer",
          "type": "address"
        },
        {
          "indexed": false,
          "internalType": "uint256",
          "name": "value",
          "type": "uint256"
        }
      ],
      "name": "Fee",
      "type": "event"
    },
    {
      "anonymous": false,
      "inputs": [
        {
          "indexed": false,
          "internalType": "uint256",
          "name": "fee",
          "type": "uint256"
        }
      ],
      "name": "FeeUpdated",
      "type": "event"
    },
    {
      "anonymous": false,
      "inputs": [
        {
          "indexed": true,
          "internalType": "address",
          "name": "previousOwner",
          "type": "address"
        },
        {
          "indexed": true,
          "internalType": "address",
          "name": "newOwner",
          "type": "address"
        }
      ],
      "name": "OwnershipTransferred",
      "type": "event"
    },
    {
      "anonymous": false,
      "inputs": [
        {
          "indexed": false,
          "internalType": "address",
          "name": "account",
          "type": "address"
        }
      ],
      "name": "Paused",
      "type": "event"
    },
    {
      "anonymous": false,
      "inputs": [
        {
          "indexed": true,
          "internalType": "bytes32",
          "name": "role",
          "type": "bytes32"
        },
        {
          "indexed": true,
          "internalType": "bytes32",
          "name": "previousAdminRole",
          "type": "bytes32"
        },
        {
          "indexed": true,
          "internalType": "bytes32",
          "name": "newAdminRole",
          "type": "bytes32"
        }
      ],
      "name": "RoleAdminChanged",
      "type": "event"
    },
    {
      "anonymous": false,
      "inputs": [
        {
          "indexed": true,
          "internalType": "bytes32",
          "name": "role",
          "type": "bytes32"
        },
        {
          "indexed": true,
          "internalType": "address",
          "name": "account",
          "type": "address"
        },
        {
          "indexed": true,
          "internalType": "address",
          "name": "sender",
          "type": "address"
        }
      ],
      "name": "RoleGranted",
      "type": "event"
    },
    {
      "anonymous": false,
      "inputs": [
        {
          "indexed": true,
          "internalType": "bytes32",
          "name": "role",
          "type": "bytes32"
        },
        {
          "indexed": true,
          "internalType": "address",
          "name": "account",
          "type": "address"
        },
        {
          "indexed": true,
          "internalType": "address",
          "name": "sender",
          "type": "address"
        }
      ],
      "name": "RoleRevoked",
      "type": "event"
    },
    {
      "anonymous": false,
      "inputs": [
        {
          "indexed": true,
          "internalType": "address",
          "name": "from",
          "type": "address"
        },
        {
          "indexed": true,
          "internalType": "address",
          "name": "to",
          "type": "address"
        },
        {
          "indexed": false,
          "internalType": "uint256",
          "name": "value",
          "type": "uint256"
        }
      ],
      "name": "Transfer",
      "type": "event"
    },
    {
      "anonymous": false,
      "inputs": [
        {
          "indexed": false,
          "internalType": "address",
          "name": "account",
          "type": "address"
        }
      ],
      "name": "Unpaused",
      "type": "event"
    },
    {
      "inputs": [],
      "name": "COMPLIANCE_ROLE",
      "outputs": [
        {
          "internalType": "bytes32",
          "name": "",
          "type": "bytes32"
        }
      ],
      "stateMutability": "view",
      "type": "function"
    },
    {
      "inputs": [],
      "name": "DEFAULT_ADMIN_ROLE",
      "outputs": [
        {
          "internalType": "bytes32",
          "name": "",
          "type": "bytes32"
        }
      ],
      "stateMutability": "view",
      "type": "function"
    },
    {
      "inputs": [],
      "name": "DOMAIN_SEPARATOR",
      "outputs": [
        {
          "internalType": "bytes32",
          "name": "",
          "type": "bytes32"
        }
      ],
      "stateMutability": "view",
      "type": "function"
    },
    {
      "inputs": [],
      "name": "FEE_ROLE",
      "outputs": [
        {
          "internalType": "bytes32",
          "name": "",
          "type": "bytes32"
        }
      ],
      "stateMutability": "view",
      "type": "function"
    },
    {
      "inputs": [],
      "name": "MINTER_ROLE",
      "outputs": [
        {
          "internalType": "bytes32",
          "name": "",
          "type": "bytes32"
        }
      ],
      "stateMutability": "view",
      "type": "function"
    },
    {
      "inputs": [],
      "name": "PAUSER_ROLE",
      "outputs": [
        {
          "internalType": "bytes32",
          "name": "",
          "type": "bytes32"
        }
      ],
      "stateMutability": "view",
      "type": "function"
    },
    {
      "inputs": [],
      "name": "acceptOwnership",
      "outputs": [],
      "stateMutability": "nonpayable",
      "type": "function"
    },
    {
      "inputs": [
        {
          "internalType": "address",
          "name": "owner_",
          "type": "address"
        },
        {
          "internalType": "address",
          "name": "spender",
          "type": "address"
        }
      ],
      "name": "allowance",
      "outputs": [
        {
          "internalType": "uint256",
          "name": "",
          "type": "uint256"
        }
      ],
      "stateMutability": "view",
      "type": "function"
    },
    {
      "inputs": [
        {
          "internalType": "address",
          "name": "spender",
          "type": "address"
        },
        {
          "internalType": "uint256",
          "name": "amount",
          "type": "uint256"
        }
      ],
      "name": "approve",
      "outputs": [
        {
          "internalType": "bool",
          "name": "",
          "type": "bool"
        }
      ],
      "stateMutability": "nonpayable",
      "type": "function"
    },
    {
      "inputs": [
        {
          "internalType": "address",
          "name": "owner_",
          "type": "address"
        }
      ],
      "name": "balanceOf",
      "outputs": [
        {
          "internalType": "uint256",
          "name": "",
          "type": "uint256"
        }
      ],
      "stateMutability": "view",
      "type": "function"
    },
    {
      "inputs": [
        {
          "internalType": "uint256",
          "name": "amount",
          "type": "uint256"
        }
      ],
      "name": "burn",
      "outputs": [
        {
          "internalType": "bool",
          "name": "",
          "type": "bool"
        }
      ],
      "stateMutability": "nonpayable",
      "type": "function"
    },
    {
      "inputs": [],
      "name": "decimals",
      "outputs": [
        {
          "internalType": "uint8",
          "name": "",
          "type": "uint8"
        }
      ],
      "stateMutability": "view",
      "type": "function"
    },
    {
      "inputs": [],
      "name": "eip712Domain",
      "outputs": [
        {
          "internalType": "bytes1",
          "name": "fields",
          "type": "bytes1"
        },
        {
          "internalType": "string",
          "name": "name",
          "type": "string"
        },
        {
          "internalType": "string",
          "name": "version",
          "type": "string"
        },
        {
          "internalType": "uint256",
          "name": "chainId",
          "type": "uint256"
        },
        {
          "internalType": "address",
          "name": "verifyingContract",
          "type": "address"
        },
        {
          "internalType": "bytes32",
          "name": "salt",
          "type": "bytes32"
        },
        {
          "internalType": "uint256[]",
          "name": "extensions",
          "type": "uint256[]"
        }
      ],
      "stateMutability": "view",
      "type": "function"
    },
    {
      "inputs": [
        {
          "internalType": "uint256",
          "name": "value",
          "type": "uint256"
        }
      ],
      "name": "estimateFee",
      "outputs": [
        {
          "internalType": "uint256",
          "name": "",
          "type": "uint256"
        }
      ],
      "stateMutability": "view",
      "type": "function"
    },
    {
      "inputs": [
        {
          "internalType": "address",
          "name": "account",
          "type": "address"
        }
      ],
      "name": "freeze",
      "outputs": [],
      "stateMutability": "nonpayable",
      "type": "function"
    },
    {
      "inputs": [
        {
          "internalType": "bytes32",
          "name": "role",
          "type": "bytes32"
        }
      ],
      "name": "getRoleAdmin",
      "outputs": [
        {
          "internalType": "bytes32",
          "name": "",
          "type": "bytes32"
        }
      ],
      "stateMutability": "view",
      "type": "function"
    },
    {
      "inputs": [
        {
          "internalType": "bytes32",
          "name": "role",
          "type": "bytes32"
        },
        {
          "internalType": "address",
          "name": "account",
          "type": "address"
        }
      ],
      "name": "grantRole",
      "outputs": [],
      "stateMutability": "nonpayable",
      "type": "function"
    },
    {
      "inputs": [
        {
          "internalType": "bytes32",
          "name": "role",
          "type": "bytes32"
        },
        {
          "internalType": "address",
          "name": "account",
          "type": "address"
        }
      ],
      "name": "hasRole",
      "outputs": [
        {
          "internalType": "bool",
          "name": "",
          "type": "bool"
        }
      ],
      "stateMutability": "view",
      "type": "function"
    },
    {
      "inputs": [],
      "name": "issuer",
      "outputs": [
        {
          "internalType": "address",
          "name": "",
          "type": "address"
        }
      ],
      "stateMutability": "view",
      "type": "function"
    },
    {
      "inputs": [],
      "name": "minFee",
      "outputs": [
        {
          "internalType": "uint256",
          "name": "",
          "type": "uint256"
        }
      ],
      "stateMutability": "view",
      "type": "function"
    },
    {
      "inputs": [
        {
          "internalType": "address",
          "name": "to",
          "type": "address"
        },
        {
          "internalType": "uint256",
          "name": "amount",
          "type": "uint256"
        }
      ],
      "name": "mint",
      "outputs": [],
      "stateMutability": "nonpayable",
      "type": "function"
    },
    {
      "inputs": [],
      "name": "name",
      "outputs": [
        {
          "internalType": "string",
          "name": "",
          "type": "string"
        }
      ],
      "stateMutability": "view",
      "type": "function"
    },
    {
      "inputs": [
        {
          "internalType": "address",
          "name": "owner",
          "type": "address"
        }
      ],
      "name": "nonces",
      "outputs": [
        {
          "internalType": "uint256",
          "name": "",
          "type": "uint256"
        }
      ],
      "stateMutability": "view",
      "type": "function"
    },
    {
      "inputs": [],
      "name": "owner",
      "outputs": [
        {
          "internalType": "address",
          "name": "",
          "type": "address"
        }
      ],
      "stateMutability": "view",
      "type": "function"
    },
    {
      "inputs": [],
      "name": "pause",
      "outputs": [],
      "stateMutability": "nonpayable",
      "type": "function"
    },
    {
      "inputs": [],
      "name": "paused",
      "outputs": [
        {
          "internalType": "bool",
          "name": "",
          "type": "bool"
        }
      ],
      "stateMutability": "view",
      "type": "function"
    },
    {
      "inputs": [
        {
          "internalType": "address",
          "name": "owner",
          "type": "address"
        },
        {
          "internalType": "address",
          "name": "spender",
          "type": "address"
        },
        {
          "internalType": "uint256",
          "name": "value",
          "type": "uint256"
        },
        {
          "internalType": "uint256",
          "name": "deadline",
          "type": "uint256"
        },
        {
          "internalType": "uint8",
          "name": "v",
          "type": "uint8"
        },
        {
          "internalType": "bytes32",
          "name": "r",
          "type": "bytes32"
        },
        {
          "internalType": "bytes32",
          "name": "s",
          "type": "bytes32"
        }
      ],
      "name": "permit",
      "outputs": [],
      "stateMutability": "nonpayable",
      "type": "function"
    },
    {
      "inputs": [
        {
          "internalType": "bytes32",
          "name": "role",
          "type": "bytes32"
        },
        {
          "internalType": "address",
          "name": "account",
          "type": "address"
        }
      ],
      "name": "renounceRole",
      "outputs": [],
      "stateMutability": "nonpayable",
      "type": "function"
    },
    {
      "inputs": [
        {
          "internalType": "bytes32",
          "name": "role",
          "type": "bytes32"
        },
        {
          "internalType": "address",
          "name": "account",
          "type": "address"
        }
      ],
      "name": "revokeRole",
      "outputs": [],
      "stateMutability": "nonpayable",
      "type": "function"
    },
    {
      "inputs": [
        {
          "internalType": "address",
          "name": "account",
          "type": "address"
        },
        {
          "internalType": "uint256",
          "name": "amount",
          "type": "uint256"
        }
      ],
      "name": "seize",
      "outputs": [],
      "stateMutability": "nonpayable",
      "type": "function"
    },
    {
      "inputs": [
        {
          "internalType": "uint256",
          "name": "fee",
          "type": "uint256"
        }
      ],
      "name": "setFee",
      "outputs": [],
      "stateMutability": "nonpayable",
      "type": "function"
    },
    {
      "inputs": [
        {
          "internalType": "bytes4",
          "name": "interfaceId",
          "type": "bytes4"
        }
      ],
      "name": "supportsInterface",
      "outputs": [
        {
          "internalType": "bool",
          "name": "",
          "type": "bool"
        }
      ],
      "stateMutability": "view",
      "type": "function"
    },
    {
      "inputs": [],
      "name": "symbol",
      "outputs": [
        {
          "internalType": "string",
          "name": "",
          "type": "string"
        }
      ],
      "stateMutability": "view",
      "type": "function"
    },
    {
      "inputs": [],
      "name": "totalSupply",
      "outputs": [
        {
          "internalType": "uint256",
          "name": "",
          "type": "uint256"
        }
      ],
      "stateMutability": "view",
      "type": "function"
    },
    {
      "inputs": [
        {
          "internalType": "address",
          "name": "recipient",
          "type": "address"
        },
        {
          "internalType": "uint256",
          "name": "amount",
          "type": "uint256"
        }
      ],
      "name": "transfer",
      "outputs": [
        {
          "internalType": "bool",
          "name": "",
          "type": "bool"
        }
      ],
      "stateMutability": "nonpayable",
      "type": "function"
    },
    {
      "inputs": [
        {
          "internalType": "address",
          "name": "sender",
          "type": "address"
        },
        {
          "internalType": "address",
          "name": "recipient",
          "type": "address"
        },
        {
          "internalType": "uint256",
          "name": "amount",
          "type": "uint256"
        }
      ],
      "name": "transferFrom",
      "outputs": [
        {
          "internalType": "bool",
          "name": "",
          "type": "bool"
        }
      ],
      "stateMutability": "nonpayable",
      "type": "function"
    },
    {
      "inputs": [
        {
          "internalType": "address",
          "name": "newOwner",
          "type": "address"
        }
      ],
      "name": "transferOwnership",
      "outputs": [],
      "stateMutability": "nonpayable",
      "type": "function"
    },
    {
      "inputs": [
        {
          "internalType": "address",
          "name": "account",
          "type": "address"
        }
      ],
      "name": "unfreeze",
      "outputs": [],
      "stateMutability": "nonpayable",
      "type": "function"
    },
    {
      "inputs": [],
      "name": "unpause",
      "outputs": [],
      "stateMutability": "nonpayable",
      "type": "function"
    }
  ],
  "transactionHash": "0x8be9e46bb251938309cc0bc80dee097fa9c9c6ec87656eaf669a52bbfd6de140",
  "args": [
    "USDV",
    "USDV"
  ],
  "numDeployments": 1,
  "solcInputHash": "c14f4da1053c49f67cdb31cb59ef2776",
  "bytecode": "0x6101606040523480156200001257600080fd5b5060405162004f9038038062004f9083398181016040528101906200003891906200067a565b816040518060400160405280600181526020017f3100000000000000000000000000000000000000000000000000000000000000815250838381600590816200008291906200094a565b5080600690816200009491906200094a565b5033600260006101000a81548173ffffffffffffffffffffffffffffffffffffffff021916908373ffffffffffffffffffffffffffffffffffffffff1602179055505050620000ee6008836200025660201b90919060201c565b61012081815250506200010c6009826200025660201b90919060201c565b6101408181525050818051906020012060e08181525050808051906020012061010081815250504660a081815250506200014b620002ae60201b60201c565b608081815250503073ffffffffffffffffffffffffffffffffffffffff1660c08173ffffffffffffffffffffffffffffffffffffffff168152505050506000600d60006101000a81548160ff021916908315150217905550620001b86000801b336200030b60201b60201c565b620001ea7f65d7a28e3265b37a6474929f336521b332c1681b933f6cb9f3376673440d862a336200030b60201b60201c565b6200021c7f9f2df0fed2c77648de5860a4cc508cd0818c85b8b8a1ab4ceeef8d981c8956a6336200030b60201b60201c565b6200024e7ff33fe78eb7c840e8bf68670029904b6f0da8e79346941c278a4e7676d473df15336200030b60201b60201c565b505062000c17565b60006020835110156200027c576200027483620003fd60201b60201c565b9050620002a8565b826200028e836200046a60201b60201c565b60000190816200029f91906200094a565b5060ff60001b90505b92915050565b60007f8b73c3c69bb8fe3d512ecc4cf759cc79239f7b179b0ffacaa9a75d522b39400f60e051610100514630604051602001620002f095949392919062000aa2565b60405160208183030381529060405280519060200120905090565b6200031d82826200047460201b60201c565b620003f9576001600c600084815260200190815260200160002060000160008373ffffffffffffffffffffffffffffffffffffffff1673ffffffffffffffffffffffffffffffffffffffff16815260200190815260200160002060006101000a81548160ff0219169083151502179055506200039e620004df60201b60201c565b73ffffffffffffffffffffffffffffffffffffffff168173ffffffffffffffffffffffffffffffffffffffff16837f2f8788117e7eff1d82e926ec794901d17c78024a50270940304540a733656f0d60405160405180910390a45b5050565b600080829050601f815111156200044d57826040517f305a27a900000000000000000000000000000000000000000000000000000000815260040162000444919062000b51565b60405180910390fd5b8051816200045b9062000ba7565b60001c1760001b915050919050565b6000819050919050565b6000600c600084815260200190815260200160002060000160008373ffffffffffffffffffffffffffffffffffffffff1673ffffffffffffffffffffffffffffffffffffffff16815260200190815260200160002060009054906101000a900460ff16905092915050565b600033905090565b6000604051905090565b600080fd5b600080fd5b600080fd5b600080fd5b6000601f19601f8301169050919050565b7f4e487b7100000000000000000000000000000000000000000000000000000000600052604160045260246000fd5b620005508262000505565b810181811067ffffffffffffffff8211171562000572576200057162000516565b5b80604052505050565b600062000587620004e7565b905062000595828262000545565b919050565b600067ffffffffffffffff821115620005b857620005b762000516565b5b620005c38262000505565b9050602081019050919050565b60005b83811015620005f0578082015181840152602081019050620005d3565b60008484015250505050565b6000620006136200060d846200059a565b6200057b565b90508281526020810184848401111562000632576200063162000500565b5b6200063f848285620005d0565b509392505050565b600082601f8301126200065f576200065e620004fb565b5b815162000671848260208601620005fc565b91505092915050565b60008060408385031215620006945762000693620004f1565b5b600083015167ffffffffffffffff811115620006b557620006b4620004f6565b5b620006c38582860162000647565b925050602083015167ffffffffffffffff811115620006e757620006e6620004f6565b5b620006f58582860162000647565b9150509250929050565b600081519050919050565b7f4e487b7100000000000000000000000000000000000000000000000000000000600052602260045260246000fd5b600060028204905060018216806200075257607f821691505b6020821081036200076857620007676200070a565b5b50919050565b60008190508160005260206000209050919050565b60006020601f8301049050919050565b600082821b905092915050565b600060088302620007d27fffffffffffffffffffffffffffffffffffffffffffffffffffffffffffffffff8262000793565b620007de868362000793565b95508019841693508086168417925050509392505050565b6000819050919050565b6000819050919050565b60006200082b620008256200081f84620007f6565b62000800565b620007f6565b9050919050565b6000819050919050565b62000847836200080a565b6200085f620008568262000832565b848454620007a0565b825550505050565b600090565b6200087662000867565b620008838184846200083c565b505050565b5b81811015620008ab576200089f6000826200086c565b60018101905062000889565b5050565b601f821115620008fa57620008c4816200076e565b620008cf8462000783565b81016020851015620008df578190505b620008f7620008ee8562000783565b83018262000888565b50505b505050565b600082821c905092915050565b60006200091f60001984600802620008ff565b1980831691505092915050565b60006200093a83836200090c565b9150826002028217905092915050565b6200095582620006ff565b67ffffffffffffffff81111562000971576200097062000516565b5b6200097d825462000739565b6200098a828285620008af565b600060209050601f831160018114620009c25760008415620009ad578287015190505b620009b985826200092c565b86555062000a29565b601f198416620009d2866200076e565b60005b82811015620009fc57848901518255600182019150602085019450602081019050620009d5565b8683101562000a1c578489015162000a18601f8916826200090c565b8355505b6001600288020188555050505b505050505050565b6000819050919050565b62000a468162000a31565b82525050565b62000a5781620007f6565b82525050565b600073ffffffffffffffffffffffffffffffffffffffff82169050919050565b600062000a8a8262000a5d565b9050919050565b62000a9c8162000a7d565b82525050565b600060a08201905062000ab9600083018862000a3b565b62000ac8602083018762000a3b565b62000ad7604083018662000a3b565b62000ae6606083018562000a4c565b62000af5608083018462000a91565b9695505050505050565b600082825260208201905092915050565b600062000b1d82620006ff565b62000b29818562000aff565b935062000b3b818560208601620005d0565b62000b468162000505565b840191505092915050565b6000602082019050818103600083015262000b6d818462000b10565b905092915050565b600081519050919050565b6000819050602082019050919050565b600062000b9e825162000a31565b80915050919050565b600062000bb48262000b75565b8262000bc08462000b80565b905062000bcd8162000b90565b9250602082101562000c105762000c0b7fffffffffffffffffffffffffffffffffffffffffffffffffffffffffffffffff8360200360080262000793565b831692505b5050919050565b60805160a05160c05160e05161010051610120516101405161431e62000c72600039600061102f01526000610ffb015260006126de015260006126bd01526000611d0a01526000611d6001526000611d89015261431e6000f3fe608060405234801561001057600080fd5b506004361061023d5760003560e01c80635c975abb1161013b57806395d89b41116100b8578063d547741f1161007c578063d547741f146106ae578063dd62ed3e146106ca578063e63ab1e9146106fa578063eb9253c014610718578063f2fde38b146107345761023d565b806395d89b4114610608578063a217fddf14610626578063a9059cbb14610644578063d505accf14610674578063d5391393146106905761023d565b80638456cb59116100ff5780638456cb591461057057806384b0196e1461057a5780638d1fdf2f1461059e5780638da5cb5b146105ba57806391d14854146105d85761023d565b80635c975abb146104cc57806369fe0e2d146104ea57806370a082311461050657806379ba5097146105365780637ecebe00146105405761023d565b806324ec7590116101c957806336568abe1161018d57806336568abe1461043e5780633f4ba83a1461045a57806340c10f191461046457806342966c681461048057806345c8b1a6146104b05761023d565b806324ec7590146103aa5780632a0276f8146103c85780632f2ff15d146103e6578063313ce567146104025780633644e515146104205761023d565b8063127e8e4d11610210578063127e8e4d146102de57806318160ddd1461030e5780631d1438481461032c57806323b872dd1461034a578063248a9ca31461037a5761023d565b806301ffc9a714610242578063062d3bd71461027257806306fdde0314610290578063095ea7b3146102ae575b600080fd5b61025c60048036038101906102579190612dd9565b610750565b6040516102699190612e21565b60405180910390f35b61027a6107ba565b6040516102879190612e55565b60405180910390f35b6102986107de565b6040516102a59190612f00565b60405180910390f35b6102c860048036038101906102c39190612fb6565b610870565b6040516102d59190612e21565b60405180910390f35b6102f860048036038101906102f39190612ff6565b6108a0565b6040516103059190613032565b60405180910390f35b6103166108db565b6040516103239190613032565b60405180910390f35b6103346108e5565b604051610341919061305c565b60405180910390f35b610364600480360381019061035f9190613077565b61090f565b6040516103719190612e21565b60405180910390f35b610394600480360381019061038f91906130f6565b610b1c565b6040516103a19190612e55565b60405180910390f35b6103b2610b3c565b6040516103bf9190613032565b60405180910390f35b6103d0610b46565b6040516103dd9190612e55565b60405180910390f35b61040060048036038101906103fb9190613123565b610b6a565b005b61040a610b8b565b604051610417919061317f565b60405180910390f35b610428610b94565b6040516104359190612e55565b60405180910390f35b61045860048036038101906104539190613123565b610ba3565b005b610462610c26565b005b61047e60048036038101906104799190612fb6565b610c5b565b005b61049a60048036038101906104959190612ff6565b610c94565b6040516104a79190612e21565b60405180910390f35b6104ca60048036038101906104c5919061319a565b610cc2565b005b6104d4610cf9565b6040516104e19190612e21565b60405180910390f35b61050460048036038101906104ff9190612ff6565b610d10565b005b610520600480360381019061051b919061319a565b610d47565b60405161052d9190613032565b60405180910390f35b61053e610d8f565b005b61055a6004803603810190610555919061319a565b610f6a565b6040516105679190613032565b60405180910390f35b610578610fb3565b005b610582610fe8565b60405161059597969594939291906132c0565b60405180910390f35b6105b860048036038101906105b3919061319a565b6110ea565b005b6105c2611121565b6040516105cf919061305c565b60405180910390f35b6105f260048036038101906105ed9190613123565b61114b565b6040516105ff9190612e21565b60405180910390f35b6106106111b6565b60405161061d9190612f00565b60405180910390f35b61062e611248565b60405161063b9190612e55565b60405180910390f35b61065e60048036038101906106599190612fb6565b61124f565b60405161066b9190612e21565b60405180910390f35b61068e60048036038101906106899190613370565b61127e565b005b6106986113da565b6040516106a59190612e55565b60405180910390f35b6106c860048036038101906106c39190613123565b6113fe565b005b6106e460048036038101906106df9190613412565b61141f565b6040516106f19190613032565b60405180910390f35b6107026114a6565b60405161070f9190612e55565b60405180910390f35b610732600480360381019061072d9190612fb6565b6114ca565b005b61074e6004803603810190610749919061319a565b611503565b005b60007f08617865000000000000000000000000000000000000000000000000000000007bffffffffffffffffffffffffffffffffffffffffffffffffffffffff1916827bffffffffffffffffffffffffffffffffffffffffffffffffffffffff1916149050919050565b7f442a94f1a1fac79af32856af2a64f63648cfa2ef3b98610a5bb7cbec4cee698581565b6060600580546107ed90613481565b80601f016020809104026020016040519081016040528092919081815260200182805461081990613481565b80156108665780601f1061083b57610100808354040283529160200191610866565b820191906000526020600020905b81548152906001019060200180831161084957829003601f168201915b5050505050905090565b60008061087d60006108a0565b905061088a338585611646565b61089533308361180f565b600191505092915050565b6000803373ffffffffffffffffffffffffffffffffffffffff163b11156108ca57600090506108d6565b6108d382611909565b90505b919050565b6000600754905090565b6000600260009054906101000a900473ffffffffffffffffffffffffffffffffffffffff16905090565b60008061091b836108a0565b9050808361092991906134e1565b600460008773ffffffffffffffffffffffffffffffffffffffff1673ffffffffffffffffffffffffffffffffffffffff16815260200190815260200160002060003373ffffffffffffffffffffffffffffffffffffffff1673ffffffffffffffffffffffffffffffffffffffff1681526020019081526020016000205410156109e7576040517f08c379a00000000000000000000000000000000000000000000000000000000081526004016109de90613561565b60405180910390fd5b8083600460008873ffffffffffffffffffffffffffffffffffffffff1673ffffffffffffffffffffffffffffffffffffffff16815260200190815260200160002060003373ffffffffffffffffffffffffffffffffffffffff1673ffffffffffffffffffffffffffffffffffffffff16815260200190815260200160002054610a709190613581565b610a7a9190613581565b600460008773ffffffffffffffffffffffffffffffffffffffff1673ffffffffffffffffffffffffffffffffffffffff16815260200190815260200160002060003373ffffffffffffffffffffffffffffffffffffffff1673ffffffffffffffffffffffffffffffffffffffff16815260200190815260200160002081905550610b0585858561191a565b610b1085858361180f565b60019150509392505050565b6000600c6000838152602001908152602001600020600101549050919050565b6000600154905090565b7ff33fe78eb7c840e8bf68670029904b6f0da8e79346941c278a4e7676d473df1581565b610b7382610b1c565b610b7c81611c11565b610b868383611c25565b505050565b60006006905090565b6000610b9e611d06565b905090565b610bab611dbd565b73ffffffffffffffffffffffffffffffffffffffff168173ffffffffffffffffffffffffffffffffffffffff1614610c18576040517f08c379a0000000000000000000000000000000000000000000000000000000008152600401610c0f90613627565b60405180910390fd5b610c228282611dc5565b5050565b7f65d7a28e3265b37a6474929f336521b332c1681b933f6cb9f3376673440d862a610c5081611c11565b610c58611ea7565b50565b7f9f2df0fed2c77648de5860a4cc508cd0818c85b8b8a1ab4ceeef8d981c8956a6610c8581611c11565b610c8f8383611f0a565b505050565b600080610ca160006108a0565b9050610cad338461209b565b610cb833308361180f565b6001915050919050565b7f442a94f1a1fac79af32856af2a64f63648cfa2ef3b98610a5bb7cbec4cee6985610cec81611c11565b610cf5826122ad565b5050565b6000600d60009054906101000a900460ff16905090565b7ff33fe78eb7c840e8bf68670029904b6f0da8e79346941c278a4e7676d473df15610d3a81611c11565b610d4382612308565b5050565b60008060008373ffffffffffffffffffffffffffffffffffffffff1673ffffffffffffffffffffffffffffffffffffffff168152602001908152602001600020549050919050565b600360009054906101000a900473ffffffffffffffffffffffffffffffffffffffff1673ffffffffffffffffffffffffffffffffffffffff163373ffffffffffffffffffffffffffffffffffffffff1614610e1f576040517f08c379a0000000000000000000000000000000000000000000000000000000008152600401610e16906136b9565b60405180910390fd5b6000600260009054906101000a900473ffffffffffffffffffffffffffffffffffffffff169050600360009054906101000a900473ffffffffffffffffffffffffffffffffffffffff16600260006101000a81548173ffffffffffffffffffffffffffffffffffffffff021916908373ffffffffffffffffffffffffffffffffffffffff1602179055506000600360006101000a81548173ffffffffffffffffffffffffffffffffffffffff021916908373ffffffffffffffffffffffffffffffffffffffff160217905550600260009054906101000a900473ffffffffffffffffffffffffffffffffffffffff1673ffffffffffffffffffffffffffffffffffffffff168173ffffffffffffffffffffffffffffffffffffffff167f8be0079c531659141344cd1fd0a4f28419497f9722a3daafe3b4186f6b6457e060405160405180910390a350565b6000600a60008373ffffffffffffffffffffffffffffffffffffffff1673ffffffffffffffffffffffffffffffffffffffff168152602001908152602001600020549050919050565b7f65d7a28e3265b37a6474929f336521b332c1681b933f6cb9f3376673440d862a610fdd81611c11565b610fe5612349565b50565b60006060806000806000606061102860087f00000000000000000000000000000000000000000000000000000000000000006123ac90919063ffffffff16565b61105c60097f00000000000000000000000000000000000000000000000000000000000000006123ac90919063ffffffff16565b46306000801b600067ffffffffffffffff81111561107d5761107c6136d9565b5b6040519080825280602002602001820160405280156110ab5781602001602082028036833780820191505090505b507f0f00000000000000000000000000000000000000000000000000000000000000959493929190965096509650965096509650965090919293949596565b7f442a94f1a1fac79af32856af2a64f63648cfa2ef3b98610a5bb7cbec4cee698561111481611c11565b61111d8261245c565b5050565b6000600260009054906101000a900473ffffffffffffffffffffffffffffffffffffffff16905090565b6000600c600084815260200190815260200160002060000160008373ffffffffffffffffffffffffffffffffffffffff1673ffffffffffffffffffffffffffffffffffffffff16815260200190815260200160002060009054906101000a900460ff16905092915050565b6060600680546111c590613481565b80601f01602080910402602001604051908101604052809291908181526020018280546111f190613481565b801561123e5780601f106112135761010080835404028352916020019161123e565b820191906000526020600020905b81548152906001019060200180831161122157829003601f168201915b5050505050905090565b6000801b81565b60008061125b836108a0565b905061126833858561191a565b61127333858361180f565b600191505092915050565b834211156112c1576040517f08c379a00000000000000000000000000000000000000000000000000000000081526004016112b890613754565b60405180910390fd5b60007f6e71edae12b1b97f4d1f60370fef10105fa2faae0126114a169c64845d6126c98888886112f08c6124b7565b8960405160200161130696959493929190613774565b604051602081830303815290604052805190602001209050600061132982612514565b905060006113398287878761252e565b90508973ffffffffffffffffffffffffffffffffffffffff168173ffffffffffffffffffffffffffffffffffffffff16146113a9576040517f08c379a00000000000000000000000000000000000000000000000000000000081526004016113a090613821565b60405180910390fd5b60006113b560006108a0565b90506113c28b8b8b611646565b6113cd8b308361180f565b5050505050505050505050565b7f9f2df0fed2c77648de5860a4cc508cd0818c85b8b8a1ab4ceeef8d981c8956a681565b61140782610b1c565b61141081611c11565b61141a8383611dc5565b505050565b6000600460008473ffffffffffffffffffffffffffffffffffffffff1673ffffffffffffffffffffffffffffffffffffffff16815260200190815260200160002060008373ffffffffffffffffffffffffffffffffffffffff1673ffffffffffffffffffffffffffffffffffffffff16815260200190815260200160002054905092915050565b7f65d7a28e3265b37a6474929f336521b332c1681b933f6cb9f3376673440d862a81565b7f442a94f1a1fac79af32856af2a64f63648cfa2ef3b98610a5bb7cbec4cee69856114f481611c11565b6114fe8383612559565b505050565b3373ffffffffffffffffffffffffffffffffffffffff16600260009054906101000a900473ffffffffffffffffffffffffffffffffffffffff1673ffffffffffffffffffffffffffffffffffffffff1614611593576040517f08c379a000000000000000000000000000000000000000000000000000000000815260040161158a9061388d565b60405180910390fd5b600073ffffffffffffffffffffffffffffffffffffffff168173ffffffffffffffffffffffffffffffffffffffff1603611602576040517f08c379a00000000000000000000000000000000000000000000000000000000081526004016115f99061391f565b60405180910390fd5b80600360006101000a81548173ffffffffffffffffffffffffffffffffffffffff021916908373ffffffffffffffffffffffffffffffffffffffff16021790555050565b600073ffffffffffffffffffffffffffffffffffffffff168373ffffffffffffffffffffffffffffffffffffffff16036116b5576040517f08c379a00000000000000000000000000000000000000000000000000000000081526004016116ac906139b1565b60405180910390fd5b600073ffffffffffffffffffffffffffffffffffffffff168273ffffffffffffffffffffffffffffffffffffffff1603611724576040517f08c379a000000000000000000000000000000000000000000000000000000000815260040161171b90613a43565b60405180910390fd5b80600460008573ffffffffffffffffffffffffffffffffffffffff1673ffffffffffffffffffffffffffffffffffffffff16815260200190815260200160002060008473ffffffffffffffffffffffffffffffffffffffff1673ffffffffffffffffffffffffffffffffffffffff168152602001908152602001600020819055508173ffffffffffffffffffffffffffffffffffffffff168373ffffffffffffffffffffffffffffffffffffffff167f8c5be1e5ebec7d5bd14f71427d1e84f3dd0314c0f7b2291e5b200ac8c7c3b925836040516118029190613032565b60405180910390a3505050565b60003373ffffffffffffffffffffffffffffffffffffffff163b116119045760008111156119035761186483600260009054906101000a900473ffffffffffffffffffffffffffffffffffffffff168361191a565b600260009054906101000a900473ffffffffffffffffffffffffffffffffffffffff1673ffffffffffffffffffffffffffffffffffffffff168273ffffffffffffffffffffffffffffffffffffffff168473ffffffffffffffffffffffffffffffffffffffff167ffcf5b3276434181e3c48bd3fe569b8939808f11e845d4b963693b9d7dbd6dd99846040516118fa9190613032565b60405180910390a45b5b505050565b6000611913610b3c565b9050919050565b600073ffffffffffffffffffffffffffffffffffffffff168373ffffffffffffffffffffffffffffffffffffffff1603611989576040517f08c379a000000000000000000000000000000000000000000000000000000000815260040161198090613ad5565b60405180910390fd5b600073ffffffffffffffffffffffffffffffffffffffff168273ffffffffffffffffffffffffffffffffffffffff16036119f8576040517f08c379a00000000000000000000000000000000000000000000000000000000081526004016119ef90613b67565b60405180910390fd5b6000808473ffffffffffffffffffffffffffffffffffffffff1673ffffffffffffffffffffffffffffffffffffffff16815260200190815260200160002054811115611a79576040517f08c379a0000000000000000000000000000000000000000000000000000000008152600401611a7090613bd3565b60405180910390fd5b611a84838383612567565b806000808573ffffffffffffffffffffffffffffffffffffffff1673ffffffffffffffffffffffffffffffffffffffff16815260200190815260200160002054611ace9190613581565b6000808573ffffffffffffffffffffffffffffffffffffffff1673ffffffffffffffffffffffffffffffffffffffff16815260200190815260200160002081905550806000808473ffffffffffffffffffffffffffffffffffffffff1673ffffffffffffffffffffffffffffffffffffffff16815260200190815260200160002054611b5a91906134e1565b6000808473ffffffffffffffffffffffffffffffffffffffff1673ffffffffffffffffffffffffffffffffffffffff168152602001908152602001600020819055508173ffffffffffffffffffffffffffffffffffffffff168373ffffffffffffffffffffffffffffffffffffffff167fddf252ad1be2c89b69c2b068fc378daa952ba7f163c4a11628f55a4df523b3ef83604051611bf99190613032565b60405180910390a3611c0c83838361260e565b505050565b611c2281611c1d611dbd565b612613565b50565b611c2f828261114b565b611d02576001600c600084815260200190815260200160002060000160008373ffffffffffffffffffffffffffffffffffffffff1673ffffffffffffffffffffffffffffffffffffffff16815260200190815260200160002060006101000a81548160ff021916908315150217905550611ca7611dbd565b73ffffffffffffffffffffffffffffffffffffffff168173ffffffffffffffffffffffffffffffffffffffff16837f2f8788117e7eff1d82e926ec794901d17c78024a50270940304540a733656f0d60405160405180910390a45b5050565b60007f000000000000000000000000000000000000000000000000000000000000000073ffffffffffffffffffffffffffffffffffffffff163073ffffffffffffffffffffffffffffffffffffffff16148015611d8257507f000000000000000000000000000000000000000000000000000000000000000046145b15611daf577f00000000000000000000000000000000000000000000000000000000000000009050611dba565b611db7612698565b90505b90565b600033905090565b611dcf828261114b565b15611ea3576000600c600084815260200190815260200160002060000160008373ffffffffffffffffffffffffffffffffffffffff1673ffffffffffffffffffffffffffffffffffffffff16815260200190815260200160002060006101000a81548160ff021916908315150217905550611e48611dbd565b73ffffffffffffffffffffffffffffffffffffffff168173ffffffffffffffffffffffffffffffffffffffff16837ff6391f5c32d9c69d2a47ea670b442974b53935d1edc7fd64eb21e047a839171b60405160405180910390a45b5050565b611eaf61272e565b6000600d60006101000a81548160ff0219169083151502179055507f5db9ee0a495bf2e6ff9c91a7834c1ba4fdd244a5e8aa4e537bd38aeae4b073aa611ef3611dbd565b604051611f00919061305c565b60405180910390a1565b600073ffffffffffffffffffffffffffffffffffffffff168273ffffffffffffffffffffffffffffffffffffffff1603611f79576040517f08c379a0000000000000000000000000000000000000000000000000000000008152600401611f7090613c3f565b60405180910390fd5b611f8560008383612567565b80600754611f9391906134e1565b600781905550806000808473ffffffffffffffffffffffffffffffffffffffff1673ffffffffffffffffffffffffffffffffffffffff16815260200190815260200160002054611fe391906134e1565b6000808473ffffffffffffffffffffffffffffffffffffffff1673ffffffffffffffffffffffffffffffffffffffff168152602001908152602001600020819055508173ffffffffffffffffffffffffffffffffffffffff16600073ffffffffffffffffffffffffffffffffffffffff167fddf252ad1be2c89b69c2b068fc378daa952ba7f163c4a11628f55a4df523b3ef836040516120839190613032565b60405180910390a36120976000838361260e565b5050565b600073ffffffffffffffffffffffffffffffffffffffff168273ffffffffffffffffffffffffffffffffffffffff160361210a576040517f08c379a000000000000000000000000000000000000000000000000000000000815260040161210190613cd1565b60405180910390fd5b6000808373ffffffffffffffffffffffffffffffffffffffff1673ffffffffffffffffffffffffffffffffffffffff1681526020019081526020016000205481111561218b576040517f08c379a000000000000000000000000000000000000000000000000000000000815260040161218290613bd3565b60405180910390fd5b61219782600083612567565b806007546121a59190613581565b600781905550806000808473ffffffffffffffffffffffffffffffffffffffff1673ffffffffffffffffffffffffffffffffffffffff168152602001908152602001600020546121f59190613581565b6000808473ffffffffffffffffffffffffffffffffffffffff1673ffffffffffffffffffffffffffffffffffffffff16815260200190815260200160002081905550600073ffffffffffffffffffffffffffffffffffffffff168273ffffffffffffffffffffffffffffffffffffffff167fddf252ad1be2c89b69c2b068fc378daa952ba7f163c4a11628f55a4df523b3ef836040516122959190613032565b60405180910390a36122a98260008361260e565b5050565b6000600b60008373ffffffffffffffffffffffffffffffffffffffff1673ffffffffffffffffffffffffffffffffffffffff16815260200190815260200160002060006101000a81548160ff02191690831515021790555050565b806001819055507f8c4d35e54a3f2ef1134138fd8ea3daee6a3c89e10d2665996babdf70261e2c768160405161233e9190613032565b60405180910390a150565b612351612777565b6001600d60006101000a81548160ff0219169083151502179055507f62e78cea01bee320cd4e420270b5ea74000d11b0c9f74754ebdbfc544b05a258612395611dbd565b6040516123a2919061305c565b60405180910390a1565b606060ff60001b83146123c9576123c2836127c1565b9050612456565b8180546123d590613481565b80601f016020809104026020016040519081016040528092919081815260200182805461240190613481565b801561244e5780601f106124235761010080835404028352916020019161244e565b820191906000526020600020905b81548152906001019060200180831161243157829003601f168201915b505050505090505b92915050565b6001600b60008373ffffffffffffffffffffffffffffffffffffffff1673ffffffffffffffffffffffffffffffffffffffff16815260200190815260200160002060006101000a81548160ff02191690831515021790555050565b6000600a60008373ffffffffffffffffffffffffffffffffffffffff1673ffffffffffffffffffffffffffffffffffffffff168152602001908152602001600020600081548092919061250990613cf1565b919050559050919050565b6000612527612521611d06565b83612835565b9050919050565b600080600061253f87878787612876565b9150915061254c81612958565b8192505050949350505050565b612563828261209b565b5050565b61256f612777565b82600b60008273ffffffffffffffffffffffffffffffffffffffff1673ffffffffffffffffffffffffffffffffffffffff16815260200190815260200160002060009054906101000a900460ff16156125fd576040517f08c379a00000000000000000000000000000000000000000000000000000000081526004016125f490613dab565b60405180910390fd5b612608848484612abe565b50505050565b505050565b61261d828261114b565b6126945761262a81612ac3565b6126388360001c6020612af0565b604051602001612649929190613e9f565b6040516020818303038152906040526040517f08c379a000000000000000000000000000000000000000000000000000000000815260040161268b9190612f00565b60405180910390fd5b5050565b60007f8b73c3c69bb8fe3d512ecc4cf759cc79239f7b179b0ffacaa9a75d522b39400f7f00000000000000000000000000000000000000000000000000000000000000007f00000000000000000000000000000000000000000000000000000000000000004630604051602001612713959493929190613ed9565b60405160208183030381529060405280519060200120905090565b612736610cf9565b612775576040517f08c379a000000000000000000000000000000000000000000000000000000000815260040161276c90613f78565b60405180910390fd5b565b61277f610cf9565b156127bf576040517f08c379a00000000000000000000000000000000000000000000000000000000081526004016127b690613fe4565b60405180910390fd5b565b606060006127ce83612d2c565b90506000602067ffffffffffffffff8111156127ed576127ec6136d9565b5b6040519080825280601f01601f19166020018201604052801561281f5781602001600182028036833780820191505090505b5090508181528360208201528092505050919050565b60006040517f190100000000000000000000000000000000000000000000000000000000000081528360028201528260228201526042812091505092915050565b6000807f7fffffffffffffffffffffffffffffff5d576e7357a4501ddfe92f46681b20a08360001c11156128b157600060039150915061294f565b6000600187878787604051600081526020016040526040516128d69493929190614004565b6020604051602081039080840390855afa1580156128f8573d6000803e3d6000fd5b505050602060405103519050600073ffffffffffffffffffffffffffffffffffffffff168173ffffffffffffffffffffffffffffffffffffffff16036129465760006001925092505061294f565b80600092509250505b94509492505050565b6000600481111561296c5761296b614049565b5b81600481111561297f5761297e614049565b5b0315612abb576001600481111561299957612998614049565b5b8160048111156129ac576129ab614049565b5b036129ec576040517f08c379a00000000000000000000000000000000000000000000000000000000081526004016129e3906140c4565b60405180910390fd5b60026004811115612a00576129ff614049565b5b816004811115612a1357612a12614049565b5b03612a53576040517f08c379a0000000000000000000000000000000000000000000000000000000008152600401612a4a90614130565b60405180910390fd5b60036004811115612a6757612a66614049565b5b816004811115612a7a57612a79614049565b5b03612aba576040517f08c379a0000000000000000000000000000000000000000000000000000000008152600401612ab1906141c2565b60405180910390fd5b5b50565b505050565b6060612ae98273ffffffffffffffffffffffffffffffffffffffff16601460ff16612af0565b9050919050565b606060006002836002612b0391906141e2565b612b0d91906134e1565b67ffffffffffffffff811115612b2657612b256136d9565b5b6040519080825280601f01601f191660200182016040528015612b585781602001600182028036833780820191505090505b5090507f300000000000000000000000000000000000000000000000000000000000000081600081518110612b9057612b8f614224565b5b60200101907effffffffffffffffffffffffffffffffffffffffffffffffffffffffffffff1916908160001a9053507f780000000000000000000000000000000000000000000000000000000000000081600181518110612bf457612bf3614224565b5b60200101907effffffffffffffffffffffffffffffffffffffffffffffffffffffffffffff1916908160001a90535060006001846002612c3491906141e2565b612c3e91906134e1565b90505b6001811115612cde577f3031323334353637383961626364656600000000000000000000000000000000600f861660108110612c8057612c7f614224565b5b1a60f81b828281518110612c9757612c96614224565b5b60200101907effffffffffffffffffffffffffffffffffffffffffffffffffffffffffffff1916908160001a905350600485901c945080612cd790614253565b9050612c41565b5060008414612d22576040517f08c379a0000000000000000000000000000000000000000000000000000000008152600401612d19906142c8565b60405180910390fd5b8091505092915050565b60008060ff8360001c169050601f811115612d73576040517fb3512b0c00000000000000000000000000000000000000000000000000000000815260040160405180910390fd5b80915050919050565b600080fd5b60007fffffffff0000000000000000000000000000000000000000000000000000000082169050919050565b612db681612d81565b8114612dc157600080fd5b50565b600081359050612dd381612dad565b92915050565b600060208284031215612def57612dee612d7c565b5b6000612dfd84828501612dc4565b91505092915050565b60008115159050919050565b612e1b81612e06565b82525050565b6000602082019050612e366000830184612e12565b92915050565b6000819050919050565b612e4f81612e3c565b82525050565b6000602082019050612e6a6000830184612e46565b92915050565b600081519050919050565b600082825260208201905092915050565b60005b83811015612eaa578082015181840152602081019050612e8f565b60008484015250505050565b6000601f19601f8301169050919050565b6000612ed282612e70565b612edc8185612e7b565b9350612eec818560208601612e8c565b612ef581612eb6565b840191505092915050565b60006020820190508181036000830152612f1a8184612ec7565b905092915050565b600073ffffffffffffffffffffffffffffffffffffffff82169050919050565b6000612f4d82612f22565b9050919050565b612f5d81612f42565b8114612f6857600080fd5b50565b600081359050612f7a81612f54565b92915050565b6000819050919050565b612f9381612f80565b8114612f9e57600080fd5b50565b600081359050612fb081612f8a565b92915050565b60008060408385031215612fcd57612fcc612d7c565b5b6000612fdb85828601612f6b565b9250506020612fec85828601612fa1565b9150509250929050565b60006020828403121561300c5761300b612d7c565b5b600061301a84828501612fa1565b91505092915050565b61302c81612f80565b82525050565b60006020820190506130476000830184613023565b92915050565b61305681612f42565b82525050565b6000602082019050613071600083018461304d565b92915050565b6000806000606084860312156130905761308f612d7c565b5b600061309e86828701612f6b565b93505060206130af86828701612f6b565b92505060406130c086828701612fa1565b9150509250925092565b6130d381612e3c565b81146130de57600080fd5b50565b6000813590506130f0816130ca565b92915050565b60006020828403121561310c5761310b612d7c565b5b600061311a848285016130e1565b91505092915050565b6000806040838503121561313a57613139612d7c565b5b6000613148858286016130e1565b925050602061315985828601612f6b565b9150509250929050565b600060ff82169050919050565b61317981613163565b82525050565b60006020820190506131946000830184613170565b92915050565b6000602082840312156131b0576131af612d7c565b5b60006131be84828501612f6b565b91505092915050565b60007fff0000000000000000000000000000000000000000000000000000000000000082169050919050565b6131fc816131c7565b82525050565b600081519050919050565b600082825260208201905092915050565b6000819050602082019050919050565b61323781612f80565b82525050565b6000613249838361322e565b60208301905092915050565b6000602082019050919050565b600061326d82613202565b613277818561320d565b93506132828361321e565b8060005b838110156132b357815161329a888261323d565b97506132a583613255565b925050600181019050613286565b5085935050505092915050565b600060e0820190506132d5600083018a6131f3565b81810360208301526132e78189612ec7565b905081810360408301526132fb8188612ec7565b905061330a6060830187613023565b613317608083018661304d565b61332460a0830185612e46565b81810360c08301526133368184613262565b905098975050505050505050565b61334d81613163565b811461335857600080fd5b50565b60008135905061336a81613344565b92915050565b600080600080600080600060e0888a03121561338f5761338e612d7c565b5b600061339d8a828b01612f6b565b97505060206133ae8a828b01612f6b565b96505060406133bf8a828b01612fa1565b95505060606133d08a828b01612fa1565b94505060806133e18a828b0161335b565b93505060a06133f28a828b016130e1565b92505060c06134038a828b016130e1565b91505092959891949750929550565b6000806040838503121561342957613428612d7c565b5b600061343785828601612f6b565b925050602061344885828601612f6b565b9150509250929050565b7f4e487b7100000000000000000000000000000000000000000000000000000000600052602260045260246000fd5b6000600282049050600182168061349957607f821691505b6020821081036134ac576134ab613452565b5b50919050565b7f4e487b7100000000000000000000000000000000000000000000000000000000600052601160045260246000fd5b60006134ec82612f80565b91506134f783612f80565b925082820190508082111561350f5761350e6134b2565b5b92915050565b7f54524332353a20616d6f756e742065786565647320616c6c6f77616e63650000600082015250565b600061354b601e83612e7b565b915061355682613515565b602082019050919050565b6000602082019050818103600083015261357a8161353e565b9050919050565b600061358c82612f80565b915061359783612f80565b92508282039050818111156135af576135ae6134b2565b5b92915050565b7f416363657373436f6e74726f6c3a2063616e206f6e6c792072656e6f756e636560008201527f20726f6c657320666f722073656c660000000000000000000000000000000000602082015250565b6000613611602f83612e7b565b915061361c826135b5565b604082019050919050565b6000602082019050818103600083015261364081613604565b9050919050565b7f54524332353a206f6e6c79206e6577206f776e65722063616e2061636365707460008201527f206f776e65727368697000000000000000000000000000000000000000000000602082015250565b60006136a3602a83612e7b565b91506136ae82613647565b604082019050919050565b600060208201905081810360008301526136d281613696565b9050919050565b7f4e487b7100000000000000000000000000000000000000000000000000000000600052604160045260246000fd5b7f54524332353a205065726d697420657870697265640000000000000000000000600082015250565b600061373e601583612e7b565b915061374982613708565b602082019050919050565b6000602082019050818103600083015261376d81613731565b9050919050565b600060c0820190506137896000830189612e46565b613796602083018861304d565b6137a3604083018761304d565b6137b06060830186613023565b6137bd6080830185613023565b6137ca60a0830184613023565b979650505050505050565b7f54524332353a20496e76616c6964207065726d69740000000000000000000000600082015250565b600061380b601583612e7b565b9150613816826137d5565b602082019050919050565b6000602082019050818103600083015261383a816137fe565b9050919050565b7f54524332353a2063616c6c6572206973206e6f7420746865206f776e65720000600082015250565b6000613877601e83612e7b565b915061388282613841565b602082019050919050565b600060208201905081810360008301526138a68161386a565b9050919050565b7f54524332353a206e6577206f776e657220697320746865207a65726f2061646460008201527f7265737300000000000000000000000000000000000000000000000000000000602082015250565b6000613909602483612e7b565b9150613914826138ad565b604082019050919050565b60006020820190508181036000830152613938816138fc565b9050919050565b7f54524332353a20617070726f76652066726f6d20746865207a65726f2061646460008201527f7265737300000000000000000000000000000000000000000000000000000000602082015250565b600061399b602483612e7b565b91506139a68261393f565b604082019050919050565b600060208201905081810360008301526139ca8161398e565b9050919050565b7f54524332353a20617070726f766520746f20746865207a65726f20616464726560008201527f7373000000000000000000000000000000000000000000000000000000000000602082015250565b6000613a2d602283612e7b565b9150613a38826139d1565b604082019050919050565b60006020820190508181036000830152613a5c81613a20565b9050919050565b7f54524332353a207472616e736665722066726f6d20746865207a65726f20616460008201527f6472657373000000000000000000000000000000000000000000000000000000602082015250565b6000613abf602583612e7b565b9150613aca82613a63565b604082019050919050565b60006020820190508181036000830152613aee81613ab2565b9050919050565b7f54524332353a207472616e7366657220746f20746865207a65726f206164647260008201527f6573730000000000000000000000000000000000000000000000000000000000602082015250565b6000613b51602383612e7b565b9150613b5c82613af5565b604082019050919050565b60006020820190508181036000830152613b8081613b44565b9050919050565b7f54524332353a20696e7375666669656e742062616c616e636500000000000000600082015250565b6000613bbd601983612e7b565b9150613bc882613b87565b602082019050919050565b60006020820190508181036000830152613bec81613bb0565b9050919050565b7f54524332353a206d696e7420746f20746865207a65726f206164647265737300600082015250565b6000613c29601f83612e7b565b9150613c3482613bf3565b602082019050919050565b60006020820190508181036000830152613c5881613c1c565b9050919050565b7f54524332353a206275726e2066726f6d20746865207a65726f2061646472657360008201527f7300000000000000000000000000000000000000000000000000000000000000602082015250565b6000613cbb602183612e7b565b9150613cc682613c5f565b604082019050919050565b60006020820190508181036000830152613cea81613cae565b9050919050565b6000613cfc82612f80565b91507fffffffffffffffffffffffffffffffffffffffffffffffffffffffffffffffff8203613d2e57613d2d6134b2565b5b600182019050919050565b7f5452433235436f6d706c69616e63653a206163636f756e742069732066726f7a60008201527f656e000000000000000000000000000000000000000000000000000000000000602082015250565b6000613d95602283612e7b565b9150613da082613d39565b604082019050919050565b60006020820190508181036000830152613dc481613d88565b9050919050565b600081905092915050565b7f416363657373436f6e74726f6c3a206163636f756e7420000000000000000000600082015250565b6000613e0c601783613dcb565b9150613e1782613dd6565b601782019050919050565b6000613e2d82612e70565b613e378185613dcb565b9350613e47818560208601612e8c565b80840191505092915050565b7f206973206d697373696e6720726f6c6520000000000000000000000000000000600082015250565b6000613e89601183613dcb565b9150613e9482613e53565b601182019050919050565b6000613eaa82613dff565b9150613eb68285613e22565b9150613ec182613e7c565b9150613ecd8284613e22565b91508190509392505050565b600060a082019050613eee6000830188612e46565b613efb6020830187612e46565b613f086040830186612e46565b613f156060830185613023565b613f22608083018461304d565b9695505050505050565b7f5061757361626c653a206e6f7420706175736564000000000000000000000000600082015250565b6000613f62601483612e7b565b9150613f6d82613f2c565b602082019050919050565b60006020820190508181036000830152613f9181613f55565b9050919050565b7f5061757361626c653a2070617573656400000000000000000000000000000000600082015250565b6000613fce601083612e7b565b9150613fd982613f98565b602082019050919050565b60006020820190508181036000830152613ffd81613fc1565b9050919050565b60006080820190506140196000830187612e46565b6140266020830186613170565b6140336040830185612e46565b6140406060830184612e46565b95945050505050565b7f4e487b7100000000000000000000000000000000000000000000000000000000600052602160045260246000fd5b7f45434453413a20696e76616c6964207369676e61747572650000000000000000600082015250565b60006140ae601883612e7b565b91506140b982614078565b602082019050919050565b600060208201905081810360008301526140dd816140a1565b9050919050565b7f45434453413a20696e76616c6964207369676e6174757265206c656e67746800600082015250565b600061411a601f83612e7b565b9150614125826140e4565b602082019050919050565b600060208201905081810360008301526141498161410d565b9050919050565b7f45434453413a20696e76616c6964207369676e6174757265202773272076616c60008201527f7565000000000000000000000000000000000000000000000000000000000000602082015250565b60006141ac602283612e7b565b91506141b782614150565b604082019050919050565b600060208201905081810360008301526141db8161419f565b9050919050565b60006141ed82612f80565b91506141f883612f80565b925082820261420681612f80565b9150828204841483151761421d5761421c6134b2565b5b5092915050565b7f4e487b7100000000000000000000000000000000000000000000000000000000600052603260045260246000fd5b600061425e82612f80565b915060008203614271576142706134b2565b5b600182039050919050565b7f537472696e67733a20686578206c656e67746820696e73756666696369656e74600082015250565b60006142b2602083612e7b565b91506142bd8261427c565b602082019050919050565b600060208201905081810360008301526142e1816142a5565b905091905056fea26469706673582212205d760577a6b9b6865f90a7749bba7c85f4273d31c659333e1e017f255841fd7464736f6c63430008130033",
  "devdoc": {
    "events": {
      "EIP712DomainChanged()": {
        "details": "MAY be emitted to signal that the domain could have changed."
      },
      "Paused(address)": {
        "details": "Emitted when the pause is triggered by `account`."
      },
      "RoleAdminChanged(bytes32,bytes32,bytes32)": {
        "details": "Emitted when `newAdminRole` is set as ``role``'s admin role, replacing `previousAdminRole` `DEFAULT_ADMIN_ROLE` is the starting admin for all roles, despite {RoleAdminChanged} not being emitted signaling this. _Available since v3.1._"
      },
      "RoleGranted(bytes32,address,address)": {
        "details": "Emitted when `account` is granted `role`. `sender` is the account that originated the contract call, an admin role bearer except when using {AccessControl-_setupRole}."
      },
      "RoleRevoked(bytes32,address,address)": {
        "details": "Emitted when `account` is revoked `role`. `sender` is the account that originated the contract call:   - if using `revokeRole`, it is the admin role bearer   - if using `renounceRole`, it is the role bearer (i.e. `account`)"
      },
      "Unpaused(address)": {
        "details": "Emitted when the pause is lifted by `account`."
      }
    },
    "kind": "dev",
    "methods": {
      "DOMAIN_SEPARATOR()": {
        "details": "See {IERC20Permit-DOMAIN_SEPARATOR}."
      },
      "acceptOwnership()": {
        "details": "Accept the ownership transfer. This is to make sure that the contract is transferred to a working address Can only be called by the newly transfered owner."
      },
      "balanceOf(address)": {
        "params": {
          "owner_": "The address to query the balance of."
        },
        "returns": {
          "_0": "An uint256 representing the amount owned by the passed address."
        }
      },
      "eip712Domain()": {
        "details": "See {EIP-5267}. _Available since v4.9._"
      },
      "getRoleAdmin(bytes32)": {
        "details": "Returns the admin role that controls `role`. See {grantRole} and {revokeRole}. To change a role's admin, use {_setRoleAdmin}."
      },
      "grantRole(bytes32,address)": {
        "details": "Grants `role` to `account`. If `account` had not been already granted `role`, emits a {RoleGranted} event. Requirements: - the caller must have ``role``'s admin role. May emit a {RoleGranted} event."
      },
      "hasRole(bytes32,address)": {
        "details": "Returns `true` if `account` has been granted `role`."
      },
      "minFee()": {
        "details": "The amount fee that will be lost when transferring."
      },
      "nonces(address)": {
        "details": "Returns an the next unused nonce for an address."
      },
      "paused()": {
        "details": "Returns true if the contract is paused, and false otherwise."
      },
      "permit(address,address,uint256,uint256,uint8,bytes32,bytes32)": {
        "details": "See {IERC20Permit-permit}."
      },
      "renounceRole(bytes32,address)": {
        "details": "Revokes `role` from the calling account. Roles are often managed via {grantRole} and {revokeRole}: this function's purpose is to provide a mechanism for accounts to lose their privileges if they are compromised (such as when a trusted device is misplaced). If the calling account had been revoked `role`, emits a {RoleRevoked} event. Requirements: - the caller must be `account`. May emit a {RoleRevoked} event."
      },
      "revokeRole(bytes32,address)": {
        "details": "Revokes `role` from `account`. If `account` had been granted `role`, emits a {RoleRevoked} event. Requirements: - the caller must have ``role``'s admin role. May emit a {RoleRevoked} event."
      },
      "transferOwnership(address)": {
        "details": "Transfers ownership of the contract to a new account (`newOwner`). Can only be called by the current owner."
      }
    },
    "version": 1
  },
  "userdoc": {
    "events": {
      "Approval(address,address,uint256)": {
        "notice": "Emitted when the allowance of a `spender` for an `owner` is set by a call to {approve}. `value` is the new allowance."
      },
      "Fee(address,address,address,uint256)": {
        "notice": "Emitted when token is transferred"
      },
      "Transfer(address,address,uint256)": {
        "notice": "Emitted when `value` tokens are moved from one account (`from`) to another (`to`). Note that `value` may be zero."
      }
    },
    "kind": "user",
    "methods": {
      "allowance(address,address)": {
        "notice": "Returns the remaining number of tokens that `spender` will be allowed to spend on behalf of `owner` through {transferFrom}. This is zero by default. This value changes when {approve} or {transferFrom} are called."
      },
      "approve(address,uint256)": {
        "notice": "Sets `amount` as the allowance of `spender` over the caller's tokens. Returns a boolean value indicating whether the operation succeeded. IMPORTANT: Beware that changing an allowance with this method brings the risk that someone may use both the old and the new allowance by unfortunate transaction ordering. One possible solution to mitigate this race condition is to first reduce the spender's allowance to 0 and set the desired value afterwards: https://github.com/ethereum/EIPs/issues/20#issuecomment-263524729 Emits an {Approval} event."
      },
      "balanceOf(address)": {
        "notice": "Returns the amount of tokens owned by `account`."
      },
      "burn(uint256)": {
        "notice": "Remove `amount` tokens owned by caller from circulation."
      },
      "decimals()": {
        "notice": "Returns the number of decimals used to get its user representation. For example, if `decimals` equals `2`, a balance of `505` tokens should be displayed to a user as `5,05` (`505 / 10 ** 2`)."
      },
      "estimateFee(uint256)": {
        "notice": "Calculate fee needed to transfer `amount` of tokens."
      },
      "issuer()": {
        "notice": "Owner of the token"
      },
      "name()": {
        "notice": "Name of token"
      },
      "owner()": {
        "notice": "Owner of the token"
      },
      "symbol()": {
        "notice": "Symbol of token"
      },
      "totalSupply()": {
        "notice": "Returns the amount of tokens in existence."
      },
      "transfer(address,uint256)": {
        "notice": "Moves `amount` tokens from the caller's account to `recipient`. Returns a boolean value indicating whether the operation succeeded. Emits a {Transfer} event."
      },
      "transferFrom(address,address,uint256)": {
        "notice": "Moves `amount` tokens from `sender` to `recipient` using the allowance mechanism. `amount` is then deducted from the caller's allowance. Returns a boolean value indicating whether the operation succeeded. Emits a {Transfer} event."
      }
    },
    "version": 1
  },
  "storageLayout": {
    "storage": [
      {
        "astId": 7513,
        "contract": "contracts/TRC25Stablecoin.sol:TRC25Stablecoin",
        "label": "_balances",
        "offset": 0,
        "slot": "0",
        "type": "t_mapping(t_address,t_uint256)"
      },
      {
        "astId": 7515,
        "contract": "contracts/TRC25Stablecoin.sol:TRC25Stablecoin",
        "label": "_minFee",
        "offset": 0,
        "slot": "1",
        "type": "t_uint256"
      },
      {
        "astId": 7517,
        "contract": "contracts/TRC25Stablecoin.sol:TRC25Stablecoin",
        "label": "_owner",
        "offset": 0,
        "slot": "2",
        "type": "t_address"
      },
      {
        "astId": 7519,
        "contract": "contracts/TRC25Stablecoin.sol:TRC25Stablecoin",
        "label": "_newOwner",
        "offset": 0,
        "slot": "3",
        "type": "t_address"
      },
      {
        "astId": 7525,
        "contract": "contracts/TRC25Stablecoin.sol:TRC25Stablecoin",
        "label": "_allowances",
        "offset": 0,
        "slot": "4",
        "type": "t_mapping(t_address,t_mapping(t_address,t_uint256))"
      },
      {
        "astId": 7527,
        "contract": "contracts/TRC25Stablecoin.sol:TRC25Stablecoin",
        "label": "_name",
        "offset": 0,
        "slot": "5",
        "type": "t_string_storage"
      },
      {
        "astId": 7529,
        "contract": "contracts/TRC25Stablecoin.sol:TRC25Stablecoin",
        "label": "_symbol",
        "offset": 0,
        "slot": "6",
        "type": "t_string_storage"
      },
      {
        "astId": 7531,
        "contract": "contracts/TRC25Stablecoin.sol:TRC25Stablecoin",
        "label": "_totalSupply",
        "offset": 0,
        "slot": "7",
        "type": "t_uint256"
      },
      {
        "astId": 5880,
        "contract": "contracts/TRC25Stablecoin.sol:TRC25Stablecoin",
        "label": "_nameFallback",
        "offset": 0,
        "slot": "8",
        "type": "t_string_storage"
      },
      {
        "astId": 5882,
        "contract": "contracts/TRC25Stablecoin.sol:TRC25Stablecoin",
        "label": "_versionFallback",
        "offset": 0,
        "slot": "9",
        "type": "t_string_storage"
      },
      {
        "astId": 8455,
        "contract": "contracts/TRC25Stablecoin.sol:TRC25Stablecoin",
        "label": "_nonces",
        "offset": 0,
        "slot": "10",
        "type": "t_mapping(t_address,t_uint256)"
      },
      {
        "astId": 8382,
        "contract": "contracts/TRC25Stablecoin.sol:TRC25Stablecoin",
        "label": "_frozen",
        "offset": 0,
        "slot": "11",
        "type": "t_mapping(t_address,t_bool)"
      },
      {
        "astId": 4407,
        "contract": "contracts/TRC25Stablecoin.sol:TRC25Stablecoin",
        "label": "_roles",
        "offset": 0,
        "slot": "12",
        "type": "t_mapping(t_bytes32,t_struct(RoleData)4402_storage)"
      },
      {
        "astId": 4814,
        "contract": "contracts/TRC25Stablecoin.sol:TRC25Stablecoin",
        "label": "_paused",
        "offset": 0,
        "slot": "13",
        "type": "t_bool"
      }
    ],
    "types": {
      "t_address": {
        "encoding": "inplace",
        "label": "address",
        "numberOfBytes": "20"
      },
      "t_bool": {
        "encoding": "inplace",
        "label": "bool",
        "numberOfBytes": "1"
      },
      "t_bytes32": {
        "encoding": "inplace",
        "label": "bytes32",
        "numberOfBytes": "32"
      },
      "t_mapping(t_address,t_bool)": {
        "encoding": "mapping",
        "key": "t_address",
        "label": "mapping(address => bool)",
        "numberOfBytes": "32",
        "value": "t_bool"
      },
      "t_mapping(t_address,t_mapping(t_address,t_uint256))": {
        "encoding": "mapping",
        "key": "t_address",
        "label": "mapping(address => mapping(address => uint256))",
        "numberOfBytes": "32",
        "value": "t_mapping(t_address,t_uint256)"
      },
      "t_mapping(t_address,t_uint256)": {
        "encoding": "mapping",
        "key": "t_address",
        "label": "mapping(address => uint256)",
        "numberOfBytes": "32",
        "value": "t_uint256"
      },
      "t_mapping(t_bytes32,t_struct(RoleData)4402_storage)": {
        "encoding": "mapping",
        "key": "t_bytes32",
        "label": "mapping(bytes32 => struct AccessControl.RoleData)",
        "numberOfBytes": "32",
        "value": "t_struct(RoleData)4402_storage"
      },
      "t_string_storage": {
        "encoding": "bytes",
        "label": "string",
        "numberOfBytes": "32"
      },
      "t_struct(RoleData)4402_storage": {
        "encoding": "inplace",
        "label": "struct AccessControl.RoleData",
        "members": [
          {
            "astId": 4399,
            "contract": "contracts/TRC25Stablecoin.sol:TRC25Stablecoin",
            "label": "members",
            "offset": 0,
            "slot": "0",
            "type": "t_mapping(t_address,t_bool)"
          },
          {
            "astId": 4401,
            "contract": "contracts/TRC25Stablecoin.sol:TRC25Stablecoin",
            "label": "adminRole",
            "offset": 0,
            "slot": "1",
            "type": "t_bytes32"
          }
        ],
        "numberOfBytes": "64"
      },
      "t_uint256": {
        "encoding": "inplace",
        "label": "uint256",
        "numberOfBytes": "32"
      }
    }
  }
}